:020000040800F2
:100000000000022071320008D51D0008D71D00082D
:10001000D91D0008DB1D0008DD1D000800000000E0
:10002000000000000000000000000000DF1D0008CC
:10003000E11D000800000000E31D0008E51D0008A8
:10004000C1320008C1320008C1320008C1320008C4
:10005000C1320008C1320008C1320008C1320008B4
:10006000C1320008C1320008C1320008C1320008A4
:10007000C1320008C1320008C1320008C132000894
:10008000C1320008C1320008C1320008C132000884
:10009000C1320008C1320008C1320008ED1D00085D
:1000A000C1320008C1320008C1320008C132000864
:1000B000C1320008C1320008C1320008C132000854
:1000C000C1320008C1320008C1320008C132000844
:1000D000C1320008C1320008C1320008C132000834
:1000E000C1320008C1320008C1320008C132000824
:1000F000C1320008C1320008C1320008C132000814
:10010000C1320008C1320008C1320008C132000803
:10011000C1320008C1320008C1320008C1320008F3
:10012000C1320008C1320008C1320008C1320008E3
:10013000C1320008C1320008C1320008C1320008D3
:10014000C1320008C1320008C1320008C1320008C3
:10015000C1320008C1320008C1320008C1320008B3
:10016000C1320008C1320008C1320008C1320008A3
:10017000C1320008C1320008C1320008000000008E
:08018000C1320008C132000881
:1001900010B5054C237833B9044B13B10448AFF3C1
:1001A00000800123237010BD8C000020000000009F
:1001B0008844000808B5034B1BB103490348AFF35B
:1001C000008008BD00000000900000208844000866
:1001D00081F0004102E000BF83F0004330B54FEAF8
:1001E00041044FEA430594EA050F08BF90EA020F65
:1001F0001FBF54EA000C55EA020C7FEA645C7FEAF8
:10020000655C00F0E2804FEA5454D4EB5555B8BF1A
:100210006D420CDD2C4480EA020281EA030382EA8B
:10022000000083EA010180EA020281EA0303362D1D
:1002300088BF30BD11F0004F4FEA01314FF4801CF0
:100240004CEA113102D0404261EB410113F0004F02
:100250004FEA03334CEA133302D0524263EB4303B9
:1002600094EA050F00F0A780A4F10104D5F1200E57
:100270000DDB02FA0EFC22FA05F2801841F10001B2
:1002800003FA0EF2801843FA05F359410EE0A5F186
:1002900020050EF1200E012A03FA0EFC28BF4CF0B7
:1002A000020C43FA05F3C01851EBE37101F000456D
:1002B00007D54FF0000EDCF1000C7EEB00006EEB7A
:1002C0000101B1F5801F1BD3B1F5001F0CD3490804
:1002D0005FEA30004FEA3C0C04F101044FEA44525B
:1002E00012F5800F80F09A80BCF1004F08BF5FEAE2
:1002F000500C50F1000041EB045141EA050130BDC2
:100300005FEA4C0C404141EB010111F4801FA4F164
:100310000104E9D191F0000F04BF01460020B1FAB9
:1003200081F308BF2033A3F10B03B3F120020CDAF1
:100330000C3208DD02F1140CC2F10C0201FA0CF0CF
:1003400021FA02F10CE002F11402D8BFC2F1200C34
:1003500001FA02F120FA0CFCDCBF41EA0C019040EA
:10036000E41AA2BF01EB0451294330BD6FEA040433
:100370001F3C1CDA0C340EDC04F11404C4F120021E
:1003800020FA04F001FA02F340EA030021FA04F330
:1003900045EA030130BDC4F10C04C4F1200220FA87
:1003A00002F001FA04F340EA0300294630BD21FAC5
:1003B00004F0294630BD94F0000F83F4801306BF8B
:1003C00081F480110134013D4EE77FEA645C18BF7F
:1003D0007FEA655C29D094EA050F08BF90EA020F16
:1003E00005D054EA000C04BF1946104630BD91EA0E
:1003F000030F1EBF0021002030BD5FEA545C05D111
:100400004000494128BF41F0004130BD14F580044F
:100410003CBF01F5801130BD01F0004545F0FE41C3
:1004200041F470014FF0000030BD7FEA645C1ABFF8
:10043000194610467FEA655C1CBF0B46024650EA2F
:10044000013406BF52EA033591EA030F41F400215B
:1004500030BD00BF90F0000F04BF0021704730B5E1
:100460004FF4806404F132044FF000054FF00001B6
:1004700050E700BF90F0000F04BF0021704730B577
:100480004FF4806404F1320410F0004548BF40424C
:100490004FF000013EE700BF42004FEAE2014FEAA1
:1004A00031014FEA02701FBF12F07F4393F07F4F7C
:1004B00081F06051704732F07F4208BF704793F07F
:1004C0007F4F04BF41F40021704730B54FF4607492
:1004D00001F0004521F000411CE700BF50EA010295
:1004E00008BF704730B54FF000050AE050EA01023E
:1004F00008BF704730B511F0004502D5404261EBAE
:1005000041014FF4806404F132045FEA915C3FF4EE
:10051000D8AE4FF003025FEADC0C18BF03325FEA8B
:10052000DC0C18BF033202EBDC02C2F1200300FA3C
:1005300003FC20FA02F001FA03FE40EA0E0021FA61
:1005400002F11444BDE600BF70B54FF0FF0C4CF44F
:10055000E06C1CEA11541DBF1CEA135594EA0C0F01
:1005600095EA0C0F00F0DEF82C4481EA030621EA3C
:100570004C5123EA4C5350EA013518BF52EA033577
:1005800041F4801143F4801338D0A0FB02CE4FF029
:100590000005E1FB02E506F00042E0FB03E54FF059
:1005A0000006E1FB03569CF0000F18BF4EF0010E51
:1005B000A4F1FF04B6F5007F64F5407404D25FEA4D
:1005C0004E0E6D4146EB060642EAC62141EA555100
:1005D0004FEAC52040EA5E504FEACE2EB4F1FD0C42
:1005E00088BFBCF5E06F1ED8BEF1004F08BF5FEAC0
:1005F000500E50F1000041EB045170BD06F0004672
:1006000046EA010140EA020081EA0301B4EB5C041E
:10061000C2BFD4EB0C0541EA045170BD41F4801116
:100620004FF0000E013C00F3AB8014F1360FDEBF3B
:10063000002001F0004170BDC4F10004203C35DA17
:100640000C341BDC04F11404C4F1200500FA05F39A
:1006500020FA04F001FA05F240EA020001F000423B
:1006600021F0004110EBD37021FA04F642EB0601B1
:100670005EEA430E08BF20EAD37070BDC4F10C04DB
:10068000C4F1200500FA04F320FA05F001FA04F29F
:1006900040EA020001F0004110EBD37041F100018B
:1006A0005EEA430E08BF20EAD37070BDC4F1200596
:1006B00000FA05F24EEA020E20FA04F301FA05F2FE
:1006C00043EA020321FA04F001F0004121FA04F2A6
:1006D00020EA020000EBD3705EEA430E08BF20EA76
:1006E000D37070BD94F0000F0FD101F000464000B0
:1006F00041EB010111F4801F08BF013CF7D041EA32
:10070000060195F0000F18BF704703F00046520035
:1007100043EB030313F4801F08BF013DF7D043EA06
:100720000603704794EA0C0F0CEA135518BF95EABC
:100730000C0F0CD050EA410618BF52EA4306D1D143
:1007400081EA030101F000414FF0000070BD50EA62
:10075000410606BF1046194652EA430619D094EAEC
:100760000C0F02D150EA013613D195EA0C0F05D1D6
:1007700052EA03361CBF104619460AD181EA03012A
:1007800001F0004141F0FE4141F470014FF00000E2
:1007900070BD41F0FE4141F4780170BD70B54FF07D
:1007A000FF0C4CF4E06C1CEA11541DBF1CEA1355FD
:1007B00094EA0C0F95EA0C0F00F0A7F8A4EB0504DF
:1007C00081EA030E52EA03354FEA013100F08880D6
:1007D0004FEA03334FF0805545EA131343EA12639F
:1007E0004FEA022245EA111545EA10654FEA002654
:1007F0000EF000419D4208BF964244F1FD0404F50D
:10080000407402D25B084FEA3202B61A65EB030568
:100810005B084FEA32024FF480104FF4002CB6EB25
:10082000020E75EB030E22BFB61A754640EA0C00A5
:100830005B084FEA3202B6EB020E75EB030E22BFE5
:10084000B61A754640EA5C005B084FEA3202B6EB26
:10085000020E75EB030E22BFB61A754640EA9C00E5
:100860005B084FEA3202B6EB020E75EB030E22BFB5
:10087000B61A754640EADC0055EA060E18D04FEA73
:10088000051545EA16754FEA06164FEAC30343EA13
:1008900052734FEAC2025FEA1C1CC0D111F4801FE0
:1008A0000BD141EA00014FF000004FF0004CB6E7D9
:1008B00011F4801F04BF01430020B4F1FD0C88BF78
:1008C000BCF5E06F3FF6AFAEB5EB030C04BFB6EB83
:1008D000020C5FEA500C50F1000041EB045170BD76
:1008E0000EF0004E4EEA113114EB5C04C2BFD4EBA3
:1008F0000C0541EA045170BD41F480114FF0000E27
:10090000013C90E645EA060E8DE60CEA135594EAA2
:100910000C0F08BF95EA0C0F3FF43BAF94EA0C0FA5
:100920000AD150EA01347FF434AF95EA0C0F7FF41A
:1009300025AF104619462CE795EA0C0F06D152EA6E
:1009400003353FF4FDAE1046194622E750EA410652
:1009500018BF52EA43067FF4C5AE50EA41047FF463
:100960000DAF52EA43057FF4EBAE12E74FF0FF3CC8
:1009700006E000BF4FF0010C02E000BF4FF0010C99
:100980004DF804CD4FEA410C7FEA6C5C4FEA430C12
:1009900018BF7FEA6C5C1BD001B050EA410C0CBF61
:1009A00052EA430C91EA030F02BF90EA020F0020C3
:1009B000704710F1000F91EA030F58BF994208BF2A
:1009C00090422CBFD8176FEAE37040F001007047E7
:1009D0004FEA410C7FEA6C5C02D150EA013C07D13E
:1009E0004FEA430C7FEA6C5CD6D152EA033CD3D089
:1009F0005DF8040B704700BF8446104662468C4683
:100A00001946634600E000BF01B5FFF7B7FF0028B5
:100A100048BF10F1000F01BD4DF808EDFFF7F4FFDE
:100A20000CBF012000205DF808FB00BF4DF808ED69
:100A3000FFF7EAFF34BF012000205DF808FB00BF8C
:100A40004DF808EDFFF7E0FF94BF012000205DF8AE
:100A500008FB00BF4DF808EDFFF7CEFF94BF012063
:100A600000205DF808FB00BF4DF808EDFFF7C4FF5C
:100A700034BF012000205DF808FB00BF4FEA410CA5
:100A80007FEA6C5C02D150EA013C0AD14FEA430C88
:100A90007FEA6C5C02D152EA033C02D14FF00000C5
:100AA00070474FF0010070474FEA410212F5001203
:100AB00015D211D56FF47873B3EB625212D94FEAA5
:100AC000C12343F0004343EA505311F0004F23FA8F
:100AD00002F018BF404270474FF00000704750EAE4
:100AE000013005D111F0004008BF6FF000407047A1
:100AF0004FF00000704700BF4FEA4102B2F1E043FF
:100B000024BFB3F5001CDCF1FE5C0DD901F0004CF4
:100B10004FEAC0024CEA5070B2F1004F40EB830044
:100B200008BF20F00100704711F0804F21D113F170
:100B30003872BCBF01F00040704741F480114FEAA9
:100B40005252C2F11802C2F1200C10FA0CF320FA32
:100B500002F018BF40F001004FEAC1234FEAD3234F
:100B600003FA0CFC40EA0C0023FA02F34FEA4303B9
:100B7000CCE77FEA625307D150EA01331EBF4FF042
:100B8000FE4040F44000704701F0004040F0FE405D
:100B900040F40000704700BF53B94AB9002908BFAC
:100BA00000281CBF4FF0FF314FF0FF3000F072B94A
:100BB000ADF1080C6DE904CE00F006F8DDF804E0B4
:100BC000DDE9022304B070472DE9F047089E044692
:100BD0008846002B4BD18A42154667D9B2FA82F279
:100BE0004AB1C2F1200701FA02F320FA07F7954053
:100BF00047EA030894404FEA154E230CB8FBFEF772
:100C00001FFA85FC0EFB178843EA084307FB0CF12B
:100C1000994209D9EB1807F1FF3080F01B81994206
:100C200040F21881023F2B445B1AA4B2B3FBFEF0E2
:100C30000EFB103344EA034400FB0CFCA44509D925
:100C40002C1900F1FF3380F00781A44540F20481A4
:100C500002382C4440EA0740A4EB0C0400271EB1E4
:100C6000D4400023C6E900433946BDE8F0878B42F3
:100C700009D9002E00F0EB800027C6E900013846B4
:100C80003946BDE8F087B3FA83F7002F47D18B428E
:100C900002D3824200F2FA80841A61EB030301203E
:100CA0009846002EE0D0C6E90048DDE702B9FFDE35
:100CB000B2FA82F2002A40F08F80491B4FEA154EAB
:100CC0001FFA85F80127B1FBFEFC230C0EFB1C115B
:100CD00043EA014308FB0CF1994207D9EB180CF1E8
:100CE000FF3002D2994200F2CD808446591AA3B255
:100CF000B1FBFEF00EFB101443EA044408FB00F8BD
:100D0000A04507D92C1900F1FF3302D2A04500F20B
:100D1000B6801846A4EB080440EA0C409FE7C7F1F0
:100D2000200CBB4022FA0CFE4EEA030E01FA07F437
:100D300020FA0CF521FA0CF34FEA1E482543B3FBC9
:100D4000F8F92C0C08FB19331FFA8EFA44EA034316
:100D500009FB0AF49C4202FA07F200FA07F10BD9E8
:100D60001EEB030309F1FF3080F087809C4240F2C4
:100D70008480A9F1020973441B1BADB2B3FBF8F0E8
:100D800008FB103345EA034400FB0AFAA24508D9E0
:100D90001EEB040400F1FF336BD2A24569D902387F
:100DA000744440EA0940A0FB0289A4EB0A044C45C4
:100DB000C2464B4654D351D0002E69D0B1EB0A0540
:100DC00064EB030404FA0CFCFD40FC404CEA05050E
:100DD000C6E90054002747E7C2F1200320FA03F7D1
:100DE000954001FA02F021FA03F34FEA154E384319
:100DF000010CB3FBFEF71FFA85F80EFB173341EA2F
:100E0000034107FB08F38B4204FA02F407D969187F
:100E100007F1FF3C2FD28B422DD9023F2944CB1A38
:100E200081B2B3FBFEF00EFB103341EA034100FB3D
:100E300008F38B4207D9691800F1FF3C17D28B42A7
:100E400015D902382944C91A40EA07473BE7374613
:100E5000304609E70746E7E61846FBE64145ABD2D0
:100E6000B8EB020A69EB0E0201381346A4E76046AC
:100E7000E9E7184695E76746D1E781467CE70238FF
:100E80002C4447E7ACF1020C2B442FE7384608E727
:100E90003746E9E6704700BF000000000000000090
:100EA00001F0FF01102A2BDB10F0070F08D010F81B
:100EB000013B013A8B422DD010F0070F42B3F6D11F
:100EC000F0B441EA012141EA014122F007047FF038
:100ED00000070023F0E80256083C85EA010586EA8F
:100EE000010685FA47F5A3FA87F586FA47F6A5FACB
:100EF00087F68EB9EED1F0BC01F0FF0102F00702D7
:100F000032B110F8013B013A83EA010313B1F8D181
:100F10000020704701387047002D06BF3546033862
:100F2000073815F0010F07D1013015F4807F02BF9B
:100F3000013015F4C03F0130F0BC0138704700BFEC
:100F4000034B1A6800235362536A8342FCD37047F1
:100F50002005002000B587B0002303930493059378
:100F600001910123029301A901F040F807B05DF857
:100F700004FB00B587B0002302930493059301910D
:100F80000123039301A901F031F807B05DF804FBD8
:100F900010B51F4CA1882068FFF7DCFF0122A18853
:100FA000206801F00EF94FF47A70FFF7C9FF0022B4
:100FB000A188206801F005F944F62060FFF7C0FF22
:100FC0000122A188206801F0FCF81420FFF7B8FF87
:100FD000A1882068FFF7CDFF2820FFF7B1FFA18887
:100FE000206801F0E7F840B1094B9988186801F0D2
:100FF000E1F80028F8D1012010BD5020FFF7A0FF34
:10100000A188206801F0D6F80028EDD10020F3E790
:1010100014050020014B18609980704714050020CA
:1010200070B582B0FFF7B4FF10B10026354630E04E
:10103000034643E0C4F10702012393403343DEB289
:10104000204B9988186801F0B5F80028F8D10134D0
:10105000E4B2072C17D81B4B9988186801F0AAF83E
:101060000028F8D02F20FFF76BFF164B99881868DF
:1010700001F0A0F80028DDD1C4F10702012393405C
:1010800026EA0306DCE702AB2B4403F8086C0135C3
:10109000EDB2042D01D80024DBE79DF80020094BB8
:1010A0001A729DF801205A729DF802209A719DF8DB
:1010B0000320DA719DF804209A720123184602B0C9
:1010C00070BD00BF1405002070B582B0FFF760FF4F
:1010D00010B10026354631E09FED240A44E0C4F10A
:1010E0000702012393403343DEB2214B99881868ED
:1010F00001F060F80028F8D10134E4B2072C17D8C9
:101100001B4B9988186801F055F80028F8D02F205B
:10111000FFF716FF164B9988186801F04BF8002866
:10112000DDD1C4F107020123934026EA0306DCE780
:1011300002AB2B4403F8046C0135EDB2032D01D84A
:101140000024DBE79DF8063000EE103AB8EEC00A46
:101150009DF8073007EE903AF8EE677AF2EE046AEF
:1011600087EEA67A30EE070A02B070BD00000000DC
:101170001405002038B5FFF70BFF58B300240EE02C
:10118000C4F10703012098402843C5B2124B998847
:10119000186801F00FF80028F8D10134E4B2072CE8
:1011A00018D80D4B9988186801F004F80028F8D079
:1011B0002F20FFF7C5FE084B9988186800F0FAFF4A
:1011C0000028DDD1C4F107030120984025EA000082
:1011D000C5B2DBE7284638BD14050020000000003A
:1011E0002DE9F8432A4C207AFFF744F90022294BD5
:1011F000FFF7D4FA41EC100B02F0E6F857EC106B55
:10120000A079FFF737F9804689461DA3D3E900236B
:10121000FFF79AF904460D461BA3D3E90023404685
:101220004946FEF7DBFF02460B4620462946FFF7FC
:10123000B5FA02460B4630463946FEF7CFFFFFF7B8
:101240005BFCFFF729F906460F460FA3D3E90023FD
:10125000FFF77AF904460D4632463B4608A1D1E92C
:101260000001FEF7B9FF02460B4620462946FFF76C
:1012700095FAFFF741FC00EE100ABDE8F88300BFC5
:10128000EC51B81E85AB31400000000000706E408C
:1012900014050020000059402DE9D043304CA079BE
:1012A000FFF7E8F88046894623A3D3E90023FFF738
:1012B0004BF906460F4622A3D3E900234046494690
:1012C000FEF78CFF02460B4630463946FFF766FABA
:1012D00041EC100B01F0F8FF51EC100BFFF70CFC88
:1012E000FFF7DAF818A3D3E90023FFF72DF9064634
:1012F0000F46207AFFF7BEF832463B46FFF724F947
:1013000013A3D3E90023FFF71FF906460F46A07980
:10131000FFF7B0F810A3D3E90023FEF75FFF024602
:101320000B4630463946FFF739FAFFF7E5FB00EE8A
:10133000100ABDE8D08300BFEC51B81E85AB314028
:101340000000000000706E40A69BC420B0721840E0
:101350009FCDAACFD556014066666666661271407B
:101360001405002070B588B00024039404940594FB
:10137000069407940094204B1A6B42F080021A6383
:101380001A6B02F080020092009A01941A6B42F0EC
:1013900001021A631A6B02F001020192019A02948F
:1013A0001A6B42F002021A631B6B03F002030293F2
:1013B000029B124D22460221284600F002FF022322
:1013C0000393012604960594069403A9284600F089
:1013D0000DFE202303930A4B0493059603A9284688
:1013E00000F004FE22462146172000F0A7FD17203A
:1013F00000F0D8FD08B070BD003802400000024087
:101400000000111072B6FEE700B587B0002302930A
:10141000039304930593009301931448144A0260C4
:101420005322426083604FF6FE72C26003614361E3
:10143000836101F047FE98B906A94FF4805341F843
:10144000103D0A4801F063FE60B900230093019348
:101450006946064801F0C8FE30B907B05DF804FBE4
:10146000FFF7D0FFFFF7CEFFFFF7CCFF20050020EE
:101470000000014008B50A480A4B03600A4B43606C
:1014800000238360C3604FF4804202614361836143
:10149000C361036201F000F800B908BDFFF7B2FFB5
:1014A000C004002000540040801A060000B595B02A
:1014B0003022002108A802F0D9FB002303930493F3
:1014C00005930693079301931E4A116C41F08051D6
:1014D0001164126C02F080520192019A02931A4A2E
:1014E000116841F480411160126802F48042029256
:1014F000029A0222089201210B9110210C910E9266
:101500000F930823109354231193129204231393DF
:1015100008A801F021FA80B90F2303930221049156
:10152000002305934FF480530693079303A801F01B
:101530005DFC20B915B05DF804FBFFF763FFFFF712
:1015400061FF00BF003802400070004080B588B0E5
:1015500000F0A2FCFFF7AAFFFFF704FFFFF754FF1C
:10156000FFF788FF944801F036FD02219348FFF70A
:1015700051FD00F00DFB0021084600F077F9012233
:101580008F49904800F0C6F900F0DEFA4FF4FA6097
:1015900000F0AEFC00F0FCFAFFF742FD00F0F8FAB4
:1015A00003AC894B0FCB84E80F0005210A2000F023
:1015B0005DF9864E01223146204600F0ABF9844D9C
:1015C000EB79AA798349204602F032FE19210A20DC
:1015D00000F04CF901223146204600F09BF92A7AAE
:1015E0007D49204602F024FE2D210A2000F03EF91C
:1015F00001223146204600F08DF9012500953E2359
:101600007E222946284600F030FA00F09DFA40F686
:10161000B83000F06DFC00F0BBFA704B0FCB84E8E3
:101620000F0005210A2000F021F92A463146204604
:1016300000F070F9FFF748FD10EE100AFEF72CFFDE
:1016400041EC100B664902A802F0C2FA19210A20E7
:1016500000F00CF92A463146029800F05BF900953B
:101660003E237E222946284600F0FFF900F06CFA5E
:1016700040F6B83000F03CFC00F08AFA594A2346A4
:1016800007CA03C31A80120CA27205210A2000F0B7
:10169000EDF82A463146204600F03CF9FFF76AFD96
:1016A00002465149204602F0C3FD19210A2000F0EC
:1016B000DDF82A463146204600F02CF900953E23FD
:1016C0007E222946284600F0D0F900F03DFA40F687
:1016D000B83000F00DFC00F05BFA2746DFF81CC1C3
:1016E000BCE80F000FC7DCF800303B7005210A2072
:1016F00000F0BCF82A463146204600F00BF9FFF70F
:101700006FFDF2EE047A20EE270ABCEEC00A10EE5E
:10171000103A9AB23549204602F08AFD19210A2072
:1017200000F0A4F82A463146204600F0F3F8009570
:101730003E237E222946284600F097F900F004FA5D
:1017400040F6B83000F0D4FB00F022FA284A2346D5
:1017500007CA03C31A80120CA27205210A2000F0E6
:1017600085F82A463146204600F0D4F8FFF794FD6C
:10177000DFED207A20EE270ABCEEC00A10EE103A08
:101780009AB21D49204602F053FD19210A2000F0AB
:101790006DF82A463146204600F0BCF800953E23FD
:1017A0007E222946284600F060F900F0CDF940F687
:1017B000B83000F09DFBEFE620050020000002405D
:1017C00008000020CC6C0008D86C00081000002035
:1017D00014050020E86C0008F46C0008006D000897
:1017E000106D00081C6D0008286D0008486D000889
:1017F000546D00080000C842606D0008346D000898
:1018000008B530B1FF214FF48062034802F02EFA90
:1018100008BD0021F7E700BFB00000207F2816D8E0
:101820003F2914D8104B1B7913B1B2FA82F2520936
:10183000012A0DD0CB0800EBC31001F007010122F3
:101840008A40094B1844017A21EA0201017270476B
:10185000CB0800EBC31001F007018A40024B18448B
:10186000017A114301727047A8000020014B1880D3
:1018700059807047A80000202DE9F843244B1B88AD
:101880000C7823447F2B3EDC214B5B884C7823442F
:101890003F2B3BDC90460D468146002620E01C4B4A
:1018A0001888598831442044B8FA88F2520989B21C
:1018B00080B2FFF7B3FF01342B78A3420FD907FAA8
:1018C00004F313F4004FEAD0114B188859883144BF
:1018D0002044424689B280B2FFF7A0FFEBE7013611
:1018E0006A78B24208D96968A9F1200302FB036350
:1018F00031F813700024DFE72B78054A11880B4478
:101900001380484600E00020BDE8F8830020FBE794
:10191000A800002070B504460E46154623784BB14A
:101920002A4631461846FFF7A7FF2378984201D18F
:101930000134F3E7184670BD2DE9F04F83B005463A
:101940000F4616461C469DF8303000937F2800D97C
:101950007F257F2E00D97F263F2F00D93F273F2CA0
:1019600000D93F24B54223D2A6EB05090FFA89F925
:10197000A74222D2A4EB070A0FFA8AFAB54221D273
:101980000123A74221D24FF0010BD14520DD09EB05
:10199000D9784FEA6808B9F1000F2DD1A74202D8D3
:1019A00023463C461F46B54200D82E4624B21EE0D0
:1019B000A5EB06090FFA89F9DAE7A7EB040A0FFA93
:1019C0008AFADBE74FF0FF33DBE74FF0FF3BDCE762
:1019D000CAF1000808EBD87848F34F08DBE7A4B257
:1019E000009A21463046FFF719FF013424B2BC4269
:1019F000F5DD03B0BDE8F08FBAF1000F2CD1A7429E
:101A000000D83C46B54202D833462E461D4636B273
:101A100007E0B6B2009A21463046FFF7FFFE0136D6
:101A200036B2AE42F5DDE4E79846009A39462846DC
:101A3000FFF7F4FEB54212D0C9F10003984512DD5C
:101A4000A8EB0A031BB22544ADB2D045ECDA4B44F7
:101A50001BB25F44BFB2E7E701941C46E5E7019B78
:101A60009F42E9D1C5E74346EFE72DE9F04182B057
:101A70009DF820807F2834D806460F461D463F2912
:101A80002FD883187F2B02DDC0F1800292B27B1920
:101A90003F2B02DDC7F14005ADB2324494B2CDF820
:101AA00000803B46224639463046FFF745FF3D441D
:101AB000ADB2CDF800802B46224629463046FFF7CE
:101AC0003BFFCDF800802B46324639463046FFF7C3
:101AD00033FFCDF800802B46224639462046FFF7DB
:101AE0002BFF02B0BDE8F08130B5C3B08DF808100F
:101AF000002104E04C1C555C02A90D55E1B28CB2EA
:101B00009C42F7D301330A2200929BB202AA0146FB
:101B1000024800F09BFD43B030BD00BFC004002070
:101B200000B585B08DF80C108DF80D200A230093B8
:101B3000022303AA0146034800F088FD05B05DF8C2
:101B400004FB00BFC004002010B500241AE0A4F17B
:101B50005002D2B200217820FFF7E2FF00221146A6
:101B60007820FFF7DDFF102200217820FFF7D8FF53
:101B70008023064A02EBC41240217820FFF7B4FF0D
:101B80000134E4B2072CE2D910BD00BFB000002040
:101B900008B544F6206301227821554800F010FE74
:101BA000002840F0A38040F6C41300E0013B002B66
:101BB000FCD1AE2200217820FFF7B2FF20220021C5
:101BC0007820FFF7ADFF102200217820FFF7A8FF53
:101BD000B02200217820FFF7A3FFC822002178203F
:101BE000FFF79EFF002211467820FFF799FF102291
:101BF00000217820FFF794FF402200217820FFF792
:101C00008FFF812200217820FFF78AFFFF22002129
:101C10007820FFF785FFA12200217820FFF780FFC1
:101C2000A62200217820FFF77BFFA8220021782040
:101C3000FFF776FF3F2200217820FFF771FFA422F3
:101C400000217820FFF76CFFD32200217820FFF7D6
:101C500067FF002211467820FFF762FFD52200219E
:101C60007820FFF75DFFF02200217820FFF758FF72
:101C7000D92200217820FFF753FF2222002178206B
:101C8000FFF74EFFDA2200217820FFF749FF1222EA
:101C900000217820FFF744FFDB2200217820FFF7A6
:101CA0003FFF202200217820FFF73AFF8D220021FC
:101CB0007820FFF735FF142200217820FFF730FF4E
:101CC000AF2200217820FFF72BFF2E220021782061
:101CD000FFF726FF0020FFF793FDFFF735FF054BC9
:101CE00000221A805A800120587108BD0020FCE7AC
:101CF000C0040020A800002082B0002100910B4BFE
:101D00005A6C42F480425A645A6C02F48042009247
:101D1000009A01911A6C42F080521A641B6C03F015
:101D200080530193019B02B0704700BF003802400E
:101D300030B589B00023039304930593069307936A
:101D40000268154B9A4201D009B030BD00250195BB
:101D5000124C236B43F002032363236B03F0020353
:101D60000193019BC0230393122304930123059342
:101D7000032306930423079303A9094800F036F9C7
:101D80000295236C43F400132364236C03F40013C3
:101D90000293029BD8E700BF005400400038024085
:101DA000000402400268094B9A4200D0704782B09A
:101DB00000230193064B5A6C42F001025A645B6C9B
:101DC00003F001030193019B02B070470000014042
:101DD00000380240FEE7FEE7FEE7FEE7FEE7704759
:101DE0007047704708B500F071F808BD08B52020AD
:101DF00000F0EEF908BD000008B503460B4A126872
:101E000042B10A4A106803446A46934206D8074A18
:101E1000136008BD054A06491160F2E701F0FCFEB7
:101E20000C2303604FF0FF30F3E700BFB004002045
:101E300068050020054BD3F8882042F47002C3F8EF
:101E400088204FF000629A60704700BF00ED00E00C
:101E500010B504460E4B18784FF47A73B3FBF0F3C9
:101E60000C4A1068B0FBF3F000F0AAF868B90F2C28
:101E700001D901200AE0002221464FF0FF3000F096
:101E80005DF8034B5C60002000E0012010BD00BF46
:101E90001C0000201800002008B50B4B1A6842F403
:101EA00000721A601A6842F480621A601A6842F47A
:101EB00080721A60032000F02FF80020FFF7C8FF9F
:101EC000FFF71AFF002008BD003C0240034A1168DA
:101ED000034B1B780B441360704700BF6005002064
:101EE0001C000020014B1868704700BF60050020EF
:101EF00038B50446FFF7F6FF0546B4F1FF3F02D0C0
:101F0000044B1B781C44FFF7EDFF401BA042FAD3A3
:101F100038BD00BF1C000020074AD36823F4E063EB
:101F20001B041B0C000200F4E060184340F0BF608B
:101F300040F40030D060704700ED00E030B4174B43
:101F4000DB68C3F30223C3F10704042C28BF042475
:101F50001D1D062D18D9033B4FF0FF3505FA04F47B
:101F600021EA0401994005FA03F322EA0303194325
:101F700000280BDB0901C9B200F1604000F56140A7
:101F800080F8001330BC70470023E5E700F00F0035
:101F90000901C9B2024B1954F4E700BF00ED00E09B
:101FA00014ED00E0002807DB00F01F0240090123C8
:101FB0009340024A42F82030704700BF00E100E041
:101FC0000138B0F1807F0AD2064B5860064AF021F2
:101FD00082F823100020986007221A6070470120C1
:101FE000704700BF10E000E000ED00E000230F2B81
:101FF00000F2D780F0B583B039E0072200E000227C
:10200000AA403A430234674D45F82420664A1468D2
:10201000F24302EA04054F6817F4803F01D046EA14
:102020000405614C2560646802EA04054F6817F4F2
:10203000003F01D046EA04055B4C6560A46802EAF3
:1020400004054F6817F4801F01D046EA0405564C7A
:10205000A560E46822404D6815F4001F01D046EAEF
:102060000402514CE26001330F2B00F298800122F0
:102070009A400C6804EA0206B242F4D14C68651E2C
:10208000012D03D9112C01D0122C12D185685F00CB
:102090000324BC4025EA0405CC68BC402C43846082
:1020A000456825EA02054C68C4F300129A402A43A9
:1020B0004260C4685F000322BA40D24314408D6876
:1020C000BD402543C5604C68022C01D0122C13D1B1
:1020D000DD08083550F825E003F007044FEA840CCA
:1020E0000F2404FA0CF42EEA040E0C6904FA0CF422
:1020F00044EA0E0440F82540046822404C6804F08D
:102100000304BC40224302604A6812F0805FAAD0F8
:1021100000220192254A546C44F480445464526C69
:1021200002F480420192019A9C08A51C1D4A52F8B3
:10213000257003F0030295000F22AA4027EA020748
:102140001B4A90423FF45BAF02F5806290421AD086
:1021500002F58062904218D002F58062904216D05B
:1021600002F58062904214D002F58062904212D053
:1021700002F58062904210D002F5806290423FF4F6
:102180003CAF08223CE701223AE7022238E703226B
:1021900036E7042234E7052232E7062230E703B0AF
:1021A000F0BD704700380140003C0140003802405B
:1021B000000002400369194201D10020704701204C
:1021C000704712B909048161704781617047704797
:1021D00008B5054B5B69034200D108BD024B58614D
:1021E000FFF7F5FFF9E700BF003C014003685A69BB
:1021F00012F4806F11D06FF480625A610023036380
:10220000202280F83D2080F83E30026C42F004022B
:10221000026480F83C300120704700207047F8B518
:1022200006460C4617461D4622E0FFF75BFE069B5E
:10223000C01AA84200D8DDB900233363202286F8F3
:102240003D2086F83E30326C42F02002326486F83F
:102250003C3001201AE033685B6924EA03039BB237
:10226000B3FA83F35B099F420FD1B5F1FF3FDCD195
:10227000C4F30743012BEED033689B6924EA0303C0
:102280009BB2B3FA83F35B09EDE70020F8BDF8B524
:1022900004460D4616461F463CE01A6842F400729A
:1022A0001A6023686FF480625A610023236320223E
:1022B00084F83D2084F83E30226C42F0040222640F
:1022C00084F83C30012033E0FFF70CFEC01BB04225
:1022D00000D8FEB900232363202284F83D2084F82F
:1022E0003E30226C42F02002226484F83C3001200F
:1022F0001EE023685B6925EA03039BB2003318BF25
:102300000123A3B123685A6912F4806FC5D1B6F1D5
:10231000FF3FD9D1C5F30743012BEAD023689B695E
:1023200025EA03039BB2003318BF0123E9E700202D
:10233000F8BD0000F0B583B004460F4615461E46B2
:10234000C36A082B0DD0012B0BD013F5803F08D0AA
:10235000036B122B0AD10268136843F48073136075
:1023600004E02268136843F48073136000962B46E0
:1023700000224FF001112046FFF751FF58B12368AA
:102380001B6813F4807F2BD04FF400732364032366
:10239000184603B0F0BD2369B3F5804F0ED1236812
:1023A00007F0FE071F6133462A460F492046FFF714
:1023B0006EFF03460028EBD00123E9E7FB112268FA
:1023C00003F0060343F0F003136133462A4607493E
:1023D0002046FFF75CFF28B92368FFB21F61E2E7E0
:1023E0000323D5E70123D3E7020001000800010021
:1023F00070B504460D46164623685B6913F0800FDE
:102400001CD12046FFF7F2FED0B9B5F1FF3FF3D063
:10241000FFF768FD801BA84201D8002DECD10023F6
:102420002363202284F83D2084F83E30226C42F061
:102430002002226484F83C30012000E0002070BDBE
:102440000120FCE770B504460D46164623685B691B
:1024500013F0040F1CD12046FFF7C8FED0B9B5F128
:10246000FF3FF3D0FFF73EFD801BA84201D8002DAF
:10247000ECD100232363202284F83D2084F83E30F1
:10248000226C42F02002226484F83C30012000E0FB
:10249000002070BD0120FCE7002800F0C880F8B5DE
:1024A000044690F83D30002B75D0242384F83D304D
:1024B0002268136823F0010313602268136843F451
:1024C000004313602268136823F40043136000F094
:1024D00043FD6268584B9A4262D8584B98428CBF71
:1024E00000230123002B40F0A480554BA3FB0023C5
:1024F0009B0C21684A6822F03F021A434A60256813
:102500002A6A22F03F0266684B498E424ED8013358
:1025100013432B622568E96921F44F4121F0FF0143
:102520006368454A93424BD801385B00B0FBF3F334
:102530000133C3F30B03042B38BF04230B43EB61BC
:1025400021680B6823F0C003E269206A0243134349
:102550000B6021688B6823F4034323F0FF03226997
:10256000E068024313438B602168CB6823F0FF03CC
:102570006269A06902431343CB602268136843F089
:102580000103136000202064202384F83D30206381
:1025900084F83E00F8BD80F83C30FFF7C9FB84E7C3
:1025A000284B98428CBF002301239BE74FF4967180
:1025B00001FB03F32449A1FB03139B090133A7E7A4
:1025C000A268BAB9461E03EB4307B6FBF7F601361D
:1025D000C6F30B06B6FA86F6760936BBC2B90138E1
:1025E00003EB4303B0FBF3F30133C3F30B0242F4F9
:1025F0000043A3E7461E03EB830707EB8707B6FB01
:10260000F7F60136C6F30B06B6FA86F67609E4E766
:10261000013803EB830303EB8303B0FBF3F20132D6
:10262000C2F30B0242F4404388E7012386E701200E
:1026300070470120AEE700BFA08601007F841E0026
:1026400083DE1B43FF083D00D34D62102DE9F041AE
:1026500084B004460E4690461F46FFF743FC94F8AC
:102660003D30DBB2202B04D00226304604B0BDE85A
:10267000F08105460090192301224F492046FFF7BB
:10268000CEFD002840F0918094F83C30012B00F002
:102690008E80012384F83C3023681A6812F0010F01
:1026A00003D11A6842F001021A602268136823F409
:1026B00000631360212384F83D30102384F83E30FA
:1026C00000232364C4F824806785638D23853B4BF6
:1026D000E3622B460A9A31462046FFF72BFE064658
:1026E000002866D10023039323685A6903929B69EB
:1026F0000393039B12E0236C042B01D00126B4E763
:102700002268136843F4007313600126ADE72A467C
:102710000A992046FFF796FE00282CD1238D002B26
:1027200035D02A460A992046FFF762FE0028E2D1FA
:10273000626A236812781A61616A4B1C6362638D56
:10274000013B9BB26385238D013B9BB223852268AD
:10275000506910F0040FDAD0002BD8D04B781361F9
:10276000636A01336362638D013B9BB26385238D92
:10277000013B2385CBE7236C042B01D0012674E7B2
:102780002268136843F40073136001266DE7226822
:10279000136843F400731360202384F83D30002352
:1027A00084F83E3084F83C305FE702265DE702267D
:1027B0005BE7012659E700BF020010000000FFFFA1
:1027C0002DE9F04385B00446884691461D46FFF743
:1027D00089FB94F83D30DBB2202B04D0022318464D
:1027E00005B0BDE8F083064600901923012259493F
:1027F0002046FFF714FD002840F0A18094F83C30FB
:10280000012B00F09E80012384F83C3023681A6875
:1028100012F0010F03D11A6842F001021A60226817
:10282000136823F400631360242384F83D300023ED
:102830002364A3F58033E36201273EE023681B682D
:1028400013F4807F7FD04FF4007323640323C6E723
:10285000A02384F83D3023685A69C2F340025969C5
:10286000C1F3802194F83D30DBB2A02B09D042B9EE
:1028700039B9FFF737FB801BA842E9D8002DEAD110
:10288000E6E7202384F83D3023685A6912F0020FEE
:1028900031D11A6842F400721A6023686FF48062C2
:1028A0005A610096192301222A492046FFF7B7FCF6
:1028B00000284CD101374F4539D22268136843F4C0
:1028C0008073136000962B4600224FF001112046C2
:1028D000FFF7A5FC0028B1D1236808F0FE021A61B9
:1028E000FFF700FB064623685A69C2F340025969A4
:1028F000C1F38021B6E71A6842F400721A6000231F
:10290000039323685A6903929B690393039B009680
:10291000192301220F492046FFF781FC0346A0B985
:10292000202284F83D20002284F83C2057E7202311
:1029300084F83D30002384F83C3001234FE7022324
:102940004DE702234BE7032349E7012347E7012330
:1029500045E700BF02001000002800F0E48170B5D8
:1029600082B00446036813F0010F3BD0A74B9B686D
:1029700003F00C03042B2CD0A44B9B6803F00C0336
:10298000082B21D06368B3F5803F4FD0B3F5A02F5B
:1029900052D09E4B1A6822F480321A601A6822F4D0
:1029A00080221A606368002B50D0FFF79BFA05461F
:1029B000964B1B6813F4003F14D1FFF793FA401BAA
:1029C0006428F5D90320B3E1904B5B6813F4800FC2
:1029D000D8D08E4B1B6813F4003F03D06368002BE4
:1029E00000F0A381236813F0020F55D0874B9B683A
:1029F00013F00C0F3ED0854B9B6803F00C03082BA3
:102A000033D0E368002B68D0814B01221A60FFF7B6
:102A100069FA05467D4B1B6813F0020F54D1FFF78E
:102A200061FA401B0228F5D9032081E1774A136837
:102A300043F480331360B5E7744B1A6842F4802284
:102A40001A601A6842F480321A60ABE7FFF74AFA5C
:102A500005466E4B1B6813F4003FC3D0FFF742FAE4
:102A6000401B6428F5D9032062E1684B5B6813F4CE
:102A7000800FC6D1654B1B6813F0020F04D0E368CA
:102A8000012B01D0012053E1604A136823F0F803C1
:102A9000216943EAC1031360236813F0080F40D093
:102AA000636963B35B4B01221A60FFF71BFA0546AB
:102AB000564B5B6F13F0020F33D1FFF713FA401B35
:102AC0000228F5D9032033E1504A136823F0F803B4
:102AD000216943EAC1031360DEE74D4B00221A600F
:102AE000FFF700FA0546494B1B6813F0020FD3D0DD
:102AF000FFF7F8F9401B0228F5D9032018E1454BF0
:102B000000221A60FFF7EEF90546404B5B6F13F0A9
:102B1000020F06D0FFF7E6F9401B0228F5D9032083
:102B200006E1236813F0040F79D0384B1B6C13F0C7
:102B3000805F33D100230193344B1A6C42F08052F2
:102B40001A641B6C03F080530193019B0125324BE7
:102B50001B6813F4807F23D0A368012B34D0052B8E
:102B600038D02A4B1A6F22F001021A671A6F22F02E
:102B700004021A67A368002B36D0FFF7B3F90646A4
:102B8000224B1B6F13F0020F48D1FFF7ABF9801BEC
:102B900041F288339842F3D90320C9E00025D6E7F3
:102BA0001D4A136843F480731360FFF79BF90646D0
:102BB000194B1B6813F4807FCED1FFF793F9801B6C
:102BC0000228F5D90320B3E0104A136F43F0010344
:102BD0001367CFE70D4B1A6F42F004021A671A6FA2
:102BE00042F001021A67C5E7FFF77CF90646074B7A
:102BF0001B6F13F0020F11D0FFF774F9801B41F225
:102C000088339842F3D9032092E000BF0038024095
:102C100000004742800E474200700040EDB9A369B2
:102C2000002B00F08480454A926802F00C02082ACA
:102C300051D0022B17D0424B00221A60FFF752F9F5
:102C400004463E4B1B6813F0007F42D0FFF74AF961
:102C5000001B0228F5D903206AE0384A136C23F0E0
:102C600080531364DBE7364B00221A60FFF73AF912
:102C70000546324B1B6813F0007F06D0FFF732F990
:102C8000401B0228F5D9032052E0E369226A13436E
:102C9000626A43EA8213A26A5208013A43EA024393
:102CA000E26A43EA0263254A5360254B01221A6017
:102CB000FFF718F90446214B1B6813F0007F06D17B
:102CC000FFF710F9001B0228F5D9032030E000209F
:102CD0002EE000202CE0012B2CD0184B5B6803F475
:102CE0008001E269914201D0012021E003F03F021E
:102CF000216A8A4201D001201AE0616A47F6C07257
:102D00001A408A4201D0012012E003F44032A16A45
:102D10008A4201D001200BE003F07063E26A934223
:102D20000AD0012004E001207047012000E00020CB
:102D300002B070BD0120FBE70020F9E70038024037
:102D400060004742264B9B6803F00C03042B44D0E1
:102D5000082B01D0234870472DE9F04B204B5A68CF
:102D600002F03F025B6813F4800F13D01C4B5968CC
:102D7000C1F3881100231C48A1FB0001FDF70CFFE3
:102D8000174B5B68C3F3014301335B00B0FBF3F007
:102D9000BDE8F08B124B5B68C3F388131E46002717
:102DA0005C010025E41A65EB0705A90141EA94617D
:102DB000A001001B61EB0501CB0043EA5073C40086
:102DC000A01943EB07018B0243EA9053840220468B
:102DD00019460023FDF7E0FED2E70348704700BF25
:102DE000003802400024F40040787D01002800F003
:102DF0009E8070B50446504B1B6803F00F038B4256
:102E000009D2CBB24C4A1370136803F00F038B4204
:102E100001D0012070BD236813F0020F17D013F00A
:102E2000040F04D0454A936843F4E0539360236849
:102E300013F0080F04D0414A936843F46043936051
:102E40003E4A936823F0F003A068034393600D4665
:102E5000236813F0010F32D06368012B21D09A1E32
:102E6000012A25D9354A126812F0020F61D0334980
:102E70008A6822F0030213438B60FFF733F806469B
:102E80002E4B9B6803F00C036268B3EB820F16D0E5
:102E9000FFF728F8801B41F288339842F0D90320CD
:102EA000B8E7264A126812F4003FE0D10120B1E7EA
:102EB000224A126812F0007FD9D10120AAE71E4BE6
:102EC0001B6803F00F03AB4209D9EAB21A4B1A7020
:102ED0001B6803F00F03AB4201D001209AE723687F
:102EE00013F0040F06D0154A936823F4E053E16809
:102EF0000B439360236813F0080F07D00F4A9368C1
:102F000023F46043216943EAC1039360FFF71AFF8A
:102F10000A4B9B68C3F30313094AD35CD840094B9F
:102F20001860094B1868FEF793FF002072E7012034
:102F3000704701206EE700BF003C024000380240AD
:102F4000B46C00081800002020000020014B186815
:102F5000704700BF1800002008B5FFF7F7FF044BCB
:102F60009B68C3F38223034AD35CD84008BD00BFEB
:102F700000380240C46C000810B4036A046A24F0EC
:102F800001040462846924F0F00444EA021223F08C
:102F90000A030B43826103625DF8044B704710B46F
:102FA000036A23F0100303628469036A24F4704403
:102FB00044EA023223F0A00343EA01138261036270
:102FC0005DF8044B7047836823F07003194341F0A8
:102FD000070181607047022380F83D3002689368E2
:102FE00003F00703062B03D0136843F001031360BB
:102FF000012380F83D300020704700000368304A0C
:10300000904212D0B0F1804F0FD0A2F57C42904296
:103010000BD002F58062904207D002F580629042A8
:1030200003D002F57842904203D123F070034A683E
:103030001343234A90422AD0B0F1804F27D0A2F503
:103040007C42904223D002F5806290421FD002F56C
:10305000806290421BD002F57842904217D002F570
:103060007052904213D002F5806290420FD002F568
:10307000806290420BD0A2F59832904207D002F5C0
:103080008062904203D002F58062904203D123F423
:103090004073CA68134323F080034A6913430360F3
:1030A0008B68C3620B688362054B984203D003F5BB
:1030B0008063984201D10B69036301234361704728
:1030C00000000140A8B110B5044690F83D305BB156
:1030D000022384F83D30211D2068FFF78FFF012374
:1030E00084F83D30002010BD80F83C30FEF75AFED9
:1030F000EEE70120704710B4846824F47F4442EA6C
:1031000003230B43234383605DF8044B704790F81F
:103110003C30012B66D010B50446012380F83C30CA
:10312000022380F83D300268936823F47F4323F044
:10313000770393600B68402B4AD013D9602B3DD0A6
:103140001ED9702B28D0B3F5005F30D1CB684A6808
:1031500089680068FFF7CFFF2268936843F48043D3
:10316000936024E0102B06D004D9202B03D0302B01
:1031700001D01CE0DBB919462068FFF724FF16E0F8
:10318000502B14D1CA6849680068FFF7F5FE50213A
:103190002068FFF718FF0AE0CB684A688968006872
:1031A000FFF7A9FF2268936843F077039360012338
:1031B00084F83D30002084F83C0010BDCA6849689E
:1031C0000068FFF7ECFE60212068FFF7FCFEEEE7E9
:1031D000CA6849680068FFF7CFFE40212068FFF702
:1031E000F2FEE4E70220704790F83C30012B3BD020
:1031F00030B4012380F83C30022380F83D3003686E
:103200005C689D6824F070040A6822435A60036871
:10321000164A93421AD0B3F1804F17D0A2F57C42E0
:10322000934213D002F5806293420FD002F5806280
:1032300093420BD002F57842934207D002F57052C8
:10324000934203D0A2F59432934204D125F0800535
:103250004A6815439D60012380F83D30002380F8C3
:103260003C30184630BC70470220704700000140D7
:10327000DFF834D0002103E00C4B5B58435004319D
:103280000B480C4B42189A42F6D30B4A02E000233B
:1032900042F8043B094B9A42F9D3FEF7CBFD00F00C
:1032A000C1FCFEF753F9704700000220EC6D0008E6
:1032B000000000208C0000208C0000206805002009
:1032C000FEE7000000000000F0B52DED048BB0EE2D
:1032D000408AF0EE608A384C8BB000F0F5F894F933
:1032E0000030B0EE409AF0EE609A013334D0B0EE88
:1032F000480AF0EE680A00F059FC68B32AA3D3E943
:10330000002351EC180BFDF7AFFB054660BB28A36B
:10331000D3E9002351EC180BFDF788FBE0B194F9D9
:103320000030264A0895002600270421022B8DED47
:10333000048B8DED028BCDE90667CDE900122CD010
:10334000684600F03BFC40B3089B1BB100F064FCF6
:10335000089B03609DED069BB0EE490AF0EE690AFA
:103360000BB0BDEC048BF0BD144A94F9003001920F
:10337000032100228DED048B8DED028B00910892CC
:103380002BB90F4B4FF06042CDE90623D8E70D492A
:103390000020022BCDE90601D2D100F03DFC222312
:1033A0000360D1E7AFF30080EF39FAFE422E86408A
:1033B00051302DD5104987C024000020706D0008C1
:1033C000FFFFEF470000F07FF0B52DED028B8BB0D3
:1033D00055EC104B00F010FA364BB0EE408AF0EE90
:1033E000608A93F90060731C0DD022462B4620465C
:1033F0002946FDF743FB30B9002200232046294629
:10340000FDF732FB38B1B0EE480AF0EE680A0BB0B7
:10341000BDEC028BF0BD284B0890CDE90245CDE90B
:1034200004450193B6B9254F4FF060462046294622
:1034300000220023CDE90667FDF7EEFA88B30223E8
:103440000093684600F0BAFB98B1089BB3B99DEDB4
:10345000068BD8E71A4B0022CDE9062320462946E1
:1034600000220023FDF7D8FA68B102239E420093A0
:10347000E7D100F0D1FB22230360E6E700F0CCFBAC
:10348000089B0360E3E70123022E00930BD100F0B9
:10349000C3FB212303600B4800F092FB8DED060B6C
:1034A000D3E701230093684600F088FB0028F2D19F
:1034B000EDE700BF24000020746D0008FFFFEFC798
:1034C0000000F0FF446D00082DE9F04755EC104B6B
:1034D000BF4925F000428A4284B04FEAD57612D91E
:1034E000BC498A4240F28E80C5F31303234310EE99
:1034F000102A40F00081002E00F081809FED9C0B8F
:1035000004B0BDE8F087B44B9A4200F2BB80B34BE5
:103510009A4240F2D9804FF0000A22462B462046BC
:103520002946FDF711F894A3D3E9002306460F4678
:10353000FDF70AF892A3D3E90023FCF74DFE3246CB
:103540003B46FDF701F890A3D3E90023FCF746FEC4
:1035500032463B46FCF7F8FF8DA3D3E90023FCF786
:103560003BFE32463B46FCF7EFFF8BA3D3E900233B
:10357000FCF734FE32463B46FCF7E6FF02460B46BC
:1035800020462946FCF728FE02460B4606460F4613
:1035900020462946FCF7D8FF80468946BAF1000F3D
:1035A00000F0BF8032463B4600204FF08041FCF7E0
:1035B00013FE02460B4640464946FDF7EFF8024629
:1035C0000B46DDE90201FCF707FEDDE90023FCF70D
:1035D00003FE0B46024682490020FCF7FDFD6FF416
:1035E0007F739A4580F2B9800AF57A7A01EB0A5125
:1035F00000224FF0B873FCF7A7FF41EC100B04B0AA
:10360000BDE8F08766A3D3E9002310EE100A29462F
:10361000FDF72AFA002878D163A3D3E900232046D6
:103620002946FDF703FA00287FF468AF6D4960A3CF
:10363000D3E9002301EBC60620462946FCF784FFA8
:10364000D6E90023FCF7CAFDFDF72EFA8246FCF707
:1036500011FF59A3D3E9002306460F46FCF774FF78
:1036600002460B4620462946FCF7B6FD54A3D3E993
:103670000023CDE9000130463946FCF765FFCDE96E
:10368000020118E0584B9A42D0D8584BF7003B44FF
:10369000D3E9002310EE100A2946FCF79DFD544B98
:1036A0003B4493ED007BCDE900018DED027BC6F13B
:1036B000010AAAEB060ADDE90223DDE90001FCF7B5
:1036C0008BFD04460D4628E73FA3D3E9002310EE07
:1036D000100A2946FCF782FD0022414BFDF7C4F990
:1036E000002841D02046294600223D4BFCF776FDBC
:1036F00041EC100B83E72B4620462946FCF76EFD74
:1037000041EC100B04B0BDE8F0872FA3D3E90023F0
:1037100010461946FCF718FF41EC100B04B0BDE849
:10372000F0873046394600224FF08043FCF754FDC5
:1037300002460B4640464946FDF730F822462B46E6
:10374000FCF74AFD02460B4600202549FCF744FDE4
:1037500041EC100B04B0BDE8F08701EB0A5141ECDD
:10376000100B04B0BDE8F0878246D6E6AFF30080C8
:103770000000000000000000D0A4BE726937663E61
:10378000F16BD2C541BDBB3E2CDE25AF6A56113F61
:1037900093BDBE166CC1663F3E5555555555C53F48
:1037A000EF39FAFE422E864051302DD5104987C0A0
:1037B000FE822B654715F73F0000E0FE422EE63FF4
:1037C000763C7935EF39EA3D9C7500883CE4377EDC
:1037D000412E8640FFFFEF7F422ED63FFFFF2F3E58
:1037E0000000F03F786D0008B1A2F03F886D00083E
:1037F000986D0008000000002DE9F04F51EC100B0F
:10380000B1F5801F85B00B4680F2CE8021F00042DA
:10381000024300F0D8800029C0F2EA800022DE4B8B
:10382000FCF792FEDD4A0B4693426FF0350700F33A
:10383000C180C3F3130505F5152606F6647606F474
:10384000801686F07F5282F4401242EA05011C1570
:103850000022D34BFCF7C0FCAB1CA4F2FF34C3F333
:1038600013033C44022B04EB165482468B464FF064
:10387000000240F3B3804FF08043FCF7AFFC0246F8
:103880000B4650465946FCF789FF064620460F4630
:10389000FCF7F0FD3246CDE902013B4630463946A1
:1038A000CDE90067FCF750FE02460B46804689468C
:1038B000FCF74AFEA2A3D3E9002306460F46FCF715
:1038C00043FEA1A3D3E90023FCF788FC32463B4624
:1038D000FCF73AFE9EA3D3E90023FCF77FFC3246B7
:1038E0003B46FCF731FE9CA3D3E90023FCF776FCB2
:1038F00042464B46FCF728FE99A3D3E900238046B5
:10390000894630463946FCF71FFE97A3D3E90023CA
:10391000FCF764FC32463B46FCF716FE94A3D3E961
:103920000023FCF75BFC32463B46FCF70DFE0B46E2
:10393000024649464046FCF751FCA5F5C223C5F5B1
:10394000D725A3F27A4351351D43002D06460F4675
:1039500040F38F800022934B50465946FCF7F4FD0C
:1039600052465B46FCF7F0FD02460B468046894610
:1039700030463946FCF732FCDDE90023FCF7E4FD74
:1039800006460F46002C40F08B8002460B46404610
:103990004946FCF721FC02460B4650465946FCF7C7
:1039A0001BFC41EC100B0BE07C4A93424FF00007EC
:1039B0007FF73FAF02460B46FCF710FC41EC100BC3
:1039C00005B0BDE8F08F0022002300207649FCF707
:1039D000E5FE41EC100B05B0BDE8F08F0023FDF7CC
:1039E0001BF880B1002C40F084809FED630BE7E76B
:1039F00010EE102AFCF7F0FB00220023FCF7CEFEAD
:103A000041EC100BDCE75EA3D3E900235046594696
:103A1000FCF79AFD02460B4600206249FCF7DCFBEE
:103A2000524606460F465B4650465946FCF78CFD0B
:103A300002460B4630463946FCF786FD06460F46E1
:103A40002CB32046FCF716FD4FA3D3E90023804694
:103A50008946FCF779FD4EA3D3E9002304460D46C1
:103A600040464946FCF770FD02460B463046394653
:103A70002EE002460B4650465946FCF7ADFBDDE909
:103A80000023FCF761FD06460F46002C4DD132465F
:103A90003B4650465946FCF79FFB41EC100B8FE725
:103AA00039A3D3E90023DDE90201FCF74DFD38A37A
:103AB000D3E9002304460D46DDE90201FCF744FD8D
:103AC00032463B46FCF78AFB02460B4640464946D7
:103AD000FCF782FB52465B46FCF77EFB02460B4638
:103AE00020462946FCF778FB41EC100B05B0BDE8F9
:103AF000F08F2046FCF7BEFC23A3D3E90023064643
:103B00000F46FCF721FD22A3D3E9002304460D460E
:103B100030463946FCF718FD02460B46204629463A
:103B2000FCF75CFB41EC100B4AE7DDE9028916A3C8
:103B3000D3E90023404649468BE700BFAFF300803E
:103B400044523EDF12F1C23FDE03CB966446C73FCC
:103B5000599322942449D23F935555555555E53FE5
:103B60009FC678D0099AC33FAF788E1DC571CC3FF0
:103B700004FA97999999D93F0000000000000000CD
:103B8000555555555555D53F0000E0FE422EE63FB0
:103B9000763C7935EF39EA3D00005043FFFFEF7F77
:103BA0000000F03F0000E03F000050C310EE903AEC
:103BB00043F0004000F58010C00F704700207047B0
:103BC0009FED010B704700BF000000000000F87F70
:103BD0000EB430B59CB01FAB05460D490D4853F8E7
:103BE000042B006801930024CDE9051402A9029476
:103BF0000494079400F09CF80028A1BF029B1C705D
:103C0000069B2B601CB0BDE8304003B0704700BF7E
:103C10008802FFFF28000020014B1868704700BF92
:103C20002800002070B50D4E0D4CA41BA4100025DB
:103C3000A54209D10B4E0C4C00F026FCA41BA4108D
:103C40000025A54205D170BD56F8253098470135AD
:103C5000EEE756F8253098470135F2E7E46D0008A5
:103C6000E46D0008E46D0008E86D000802440346B6
:103C7000934200D1704703F8011BF9E72DE9F047A3
:103C80008E689E4282460C469046994637D88A896D
:103C900012F4906F31D0256809696F1A65690223A3
:103CA00005EB450595FBF3F509F101033B449D4206
:103CB00038BF1D46530530D5294600F04BFB06465C
:103CC00050B90C23CAF80030A38943F04003A38104
:103CD0004FF0FF30BDE8F0873A46216900F0C8FA9E
:103CE000A38923F4906343F08003A3812661656177
:103CF0003E44ED1B2660A5604E464E4500D94E461B
:103D000032464146206800F0BEFAA3689B1BA360C0
:103D100023681E4426600020DCE72A4600F074FB7E
:103D200006460028E2D12169504600F0C5FAC8E7EE
:103D30002DE9F04F1D468B891F069DB080460C462D
:103D400016460FD50B696BB9402100F003FB2060CC
:103D5000206128B90C23C8F800304FF0FF30C8E0CC
:103D6000402363610023099320238DF829303023F9
:103D70008DF82A3003954FF0010B37463D4615F874
:103D8000013B0BB1252B3ED1B7EB060A0BD05346B6
:103D9000324621464046FFF771FF013000F0A48013
:103DA000099B534409933B78002B00F09D8000232E
:103DB0004FF0FF32CDE90523049307938DF853307C
:103DC0001A932F46052217F8011B5048FDF768F893
:103DD000049BD0B9D90644BF20228DF853201A077E
:103DE00044BF2B228DF853202A782A2A15D0079A0F
:103DF0002F4600200A25394611F8013B303B092B9C
:103E00004DD9B8B10FE02F46B8E7404A801A0BFAF7
:103E100000F0184304903D46D3E7039A111D126841
:103E20000391002A01DB079204E0524243F00203AF
:103E3000079204933B782E2B0CD17B782A2B33D11D
:103E4000039B1A1D1B680392002BB8BF4FF0FF3372
:103E5000023705932E4D397803222846FDF720F8C6
:103E600038B14023401B03FA00F0049B03430137A1
:103E70000493397827488DF8281006227E1CFDF718
:103E80000FF8002838D0244B13BB039B073323F0D3
:103E9000070308330393099B4B4409936DE705FB24
:103EA000023201200F46A6E7002301370593194689
:103EB0000A25384610F8012B303A092A03D9002B7D
:103EC000C8D00591C6E705FB012101230746F0E7AD
:103ED00003AB00932246114B04A94046AFF3008088
:103EE000B0F1FF3F8146D6D1A3895B063FF535AFE0
:103EF00009981DB0BDE8F08F03AB00932246074B35
:103F000004A9404600F082F8EAE700BFA86D000867
:103F1000AE6D0008B26D0008000000007D3C000896
:103F20002DE9F04791461F468A680B69DDF820802D
:103F30009342B8BF1346C9F8003091F843200646B3
:103F40000C4612B10133C9F800302368990642BF0C
:103F5000D9F800300233C9F80030256815F006059D
:103F600007D104F1190AE368D9F800209B1AAB4283
:103F700028DC94F843302268003318BF01239206EE
:103F80002DD404F1430239463046C047013020D0D9
:103F90002368E568D9F8002003F00603042B08BF66
:103FA000AD1AA36822690CBF25EAE5750025934286
:103FB000C4BF9B1AED184FF000091A344D451AD1B1
:103FC000002008E00123524639463046C047013000
:103FD00003D14FF0FF30BDE8F0870135C3E7E118AA
:103FE0005A1C302081F84300224494F8451082F88E
:103FF00043100233C5E70123224639463046C04705
:104000000130E6D009F10109D8E700002DE9F043BD
:1040100001F1430C0C46097E85B06E291746064611
:1040200098460C9A00F0B38022D8632936D00AD87B
:10403000002900F0B980582900F0838004F142057E
:1040400084F8421032E0642901D06929F6D1206851
:104050001368050603F104012AD51B681160002BC3
:1040600003DA2D225B4284F843206F480A2239E0AC
:10407000732900F09D8008D86F2920D07029DDD1E8
:10408000236843F02003236003E0752917D07829C3
:10409000D4D1782384F84530644855E01368191D5D
:1040A0001B68116004F1420584F8423001238CE062
:1040B0001B68116010F0400F18BF1BB2CFE71368E8
:1040C0002568181D1060280601D51B6802E06806E7
:1040D000FBD51B8854486F2914BF0A2208220021EF
:1040E00084F843106568A560002DC0F295802168B2
:1040F00021F004012160002B3DD1002D40F08E8085
:104100006546082A0BD12368DB0708D52369626856
:104110009A42DEBF302305F8013C05F1FF35ACEBD8
:1041200005032361CDF800803B4603AA21463046B3
:10413000FFF7F6FE01304DD14FF0FF3005B0BDE87E
:10414000F083394884F84510136821681D1D1B68E9
:1041500015600A060BD5CA0744BF41F02001216053
:104160001BB9226822F0200222601022B7E74D0618
:1041700048BF9BB2EFE76546B3FBF2F102FB113398
:10418000C35C05F8013D0B460029F5D1B9E713687A
:1041900025686169181D106028061B6801D5196023
:1041A00002E06A06FBD51980002323616546B9E762
:1041B0001368191D11601D68626800212846FCF70C
:1041C0006FFE08B1401B606063682361002384F8C0
:1041D0004330A7E723692A4639463046C0470130B5
:1041E000AAD023689B0713D4E068039B9842B8BF0A
:1041F0001846A3E701234A4639463046C0470130F6
:104200009AD00135E368039A9B1AAB42F2DCEBE7E4
:10421000002504F11909F5E7002BACD1037884F8E7
:10422000423004F142056CE7B96D0008CA6D000820
:104230000EB400B59CB01DAB029006906FF000412B
:10424000094807910491094953F8042B0591006826
:10425000019302A9FFF76CFD029B00221A701CB0AB
:104260005DF804EB03B07047280000200802FFFF50
:1042700010B5431E0A44914200D110BD11F8014B04
:1042800003F8014FF7E7884210B501EB020307D8A6
:10429000421E99420AD011F8014B02F8014FF8E78B
:1042A0008342F5D98118D21AD34200D110BD13F838
:1042B000014D01F8014DF7E738B50546002945D015
:1042C00051F8043C0C1F002BB8BFE41800F0D2F8E2
:1042D0001F4A1368104633B9636014602846BDE86E
:1042E000384000F0C8B8A3420CD921686218934244
:1042F00004BF1A685B68636004BF521822600460E0
:10430000ECE713465A680AB1A242FAD9196858185C
:10431000A0420BD120680144581882421960DDD1B7
:10432000106852685A6001441960D7E702D90C231B
:104330002B60D3E7206821188A4204BF11685268B5
:10434000626004BF091821605C60C7E738BD00BF28
:10435000B804002070B5CD1C25F0030508350C2DE0
:1043600038BF0C25002D064601DBA94203D90C23DA
:104370003360002070BD00F07DF8214A14682146AA
:1043800091B9204C23681BB9304600F063F82060D7
:104390002946304600F05EF8431C24D10C233360DC
:1043A000304600F068F8E4E70B685B1B18D40B2B71
:1043B0000FD90B60CD50CC18304600F05CF804F1FA
:1043C0000B00231D20F00700C31AD3D05A42E2503D
:1043D000D0E78C424B6816BF636013600C46EBE776
:1043E0000C464968CCE7C41C24F00304A04205D065
:1043F000211A304600F02EF80130CFD02560DBE7DF
:10440000B8040020BC040020F8B5074614460E4648
:1044100021B91146BDE8F840FFF79CBF22B9FFF76C
:104420004BFF25462846F8BD00F026F8A0420FD2E3
:1044300021463846FFF78EFF05460028F2D0314668
:104440002246FFF715FF31463846FFF735FFE9E70B
:104450003546E7E738B5064C002305460846236095
:10446000FDF7CAFC431C02D1236803B12B6038BDA1
:10447000640500207047704751F8043C181F002B5A
:10448000BCBF0B58C0187047F8B500BFF8BC08BCDB
:104490009E467047F8B500BFF8BC08BC9E46704702
:1044A000000000000000000000000000000000000C
:1044B00000000000000000000000000000000000FC
:1044C00000000000000000000000000000000000EC
:1044D00000000000E003E003E003E003E003E0038A
:1044E000E003E003C003C003C001C001C001C0017C
:1044F000C001000000000000E003E003E003000052
:1045000000000000000000003C1E3C1E3C1E3C1E43
:104510003C1E3C1E3C1E000000000000000000008D
:10452000000000000000000000000000000000008B
:10453000000000000000000000000000CE01CE03DB
:10454000DE039E039C039C07FF3FFF7F3807380F65
:10455000780F780F780EFFFFFFFFF01EF01CE01CB5
:10456000E03CE03DE03900000000000000000000F9
:10457000FC03FE0FEE1FE01EE01EE01EE01EE01F2B
:10458000E00FE007F003FC01FE01FE01FE01FE0169
:10459000FE01FE01FE3DFC3FF00FE001E0010000E6
:1045A00000000000033E07F78FE78EE79EE3BCE3C1
:1045B000B8E7F8E7F0F7E03FC001FF03FF07F307B4
:1045C000F30FF31EF33CF338F3787FF03FE0000085
:1045D0000000000000000000E007F80F780F781FCF
:1045E000781F781F780FF00FE00F801FC37FC3FB89
:1045F000E7F3F7F1F7F0FFF07FF03EF87F7CFF3F45
:10460000EF1F00000000000000000000E003E003D6
:10461000E003E003E003C003C0010000000000006D
:10462000000000000000000000000000000000008A
:10463000000000000000000000000000000000007A
:104640003F007C00F001E001C003C0078007800745
:10465000800F000F000F000F000F000F000F800FE2
:1046600080078007C007C003E001F0017C003F0025
:104670000F000000007E001FC007C003E001F00132
:10468000F000F000F80078007800780078007800FA
:104690007800F800F000F000F001E001C003C0076E
:1046A000001F007E00780000E003C003C001CE3987
:1046B000FF3F7F3F20037003F807780F3C1F380649
:1046C00000000000000000000000000000000000EA
:1046D00000000000000000000000000000000000DA
:1046E0000000000000000000C001C001C001C001C6
:1046F000C001C001C001FFFFFFFFC001C001C00138
:10470000C001C001C0010000000000000000000066
:104710000000000000000000000000000000000099
:104720000000000000000000000000000000000089
:104730000000E003E003E003E003E001E001E0014A
:10474000C001800300000000000000000000000025
:1047500000000000000000000000FE3FFE3F0000DF
:104760000000000000000000000000000000000049
:104770000000000000000000000000000000000039
:104780000000000000000000000000000000000029
:1047900000000000000000000000E003E003E00370
:1047A000E003000000000000000000000F000F0008
:1047B0001E001E003C003C0078007800F000F00075
:1047C000E001E001C003C00380078007000F000F75
:1047D000001E001E003C003C0078007800F0000045
:1047E000F007F80F7C1F3E3E1E3C1F7C1F7C0F789D
:1047F0000F780F780F780F780F780F781F7C1F7C59
:104800001E3C3E3E7C1FF80FF00700000000000039
:1048100000000000F000F007F03FF03FF001F00171
:10482000F001F001F001F001F001F001F001F00100
:10483000F001F001F001F001F001FF3FFF3F000047
:104840000000000000000000E00FF83F7C3C3C004E
:104850003E003E003E003C003C007C00F800F001C1
:10486000E003C0078007000F001E003E003CFE3F33
:10487000FE3F00000000000000000000F00FF81FE5
:104880007C1C3E003E003E003C003C00F800F00F67
:10489000F80F7C003E001E001E001E001E003E00A1
:1048A0007C1CF81FE01F000000000000000000005A
:1048B0007800F800F800F801F803F807F807780F17
:1048C000781E781E783C78787878FFFFFFFF7800B4
:1048D0007800780078007800780000000000000080
:1048E00000000000FC1FFC1FFC1F001E001E001E1D
:1048F000001E001EE01FF81FFC007C003E003E0072
:104900001E003E003E003C007C1CF81FE01F000023
:104910000000000000000000FC01FE078E0F001FD9
:10492000001E003E003C003CF83DFC3F3E7F1F7EE9
:104930000F3C0F3C0F3C0F3C0F3E1F1E3E1FFC0F59
:10494000F00300000000000000000000FF3FFF3FF8
:10495000FF3F0F001E001E003C0038007800F000F2
:10496000F000E001E001C003C0038007800F800F6A
:10497000000F001F001F00000000000000000000EA
:10498000F807FC0F3E1F1E1E1E3E1E3E1E1E3C1F35
:10499000F80FF007F80FFC1E3E3E1F3C1F7C0F7CFB
:1049A0000F7C1F3C3E3FFC1FF00700000000000092
:1049B00000000000F007F80F7C1E3E3C1E3C1F7CF0
:1049C0001F7C1F7C1F7C1F3C3F3EFF1FEF071F000B
:1049D0001E001E003E003C00F838F03FE01F0000C3
:1049E00000000000000000000000000000000000C7
:1049F00000000000E003E003E003E003000000002B
:104A000000000000000000000000E003E003E003FD
:104A1000E0030000000000000000000000000000B3
:104A20000000000000000000E003E003E003E003FA
:104A30000000000000000000000000000000E00393
:104A4000E003E003E003E001E001E001C0038003D4
:104A500000000000000000000000000003000F0044
:104A60003F00FC00F003C00F003F00FE003FC00FFE
:104A7000F003FC003F000F000300000000000000F6
:104A80000000000000000000000000000000000026
:104A90000000000000000000FFFFFFFF000000001A
:104AA0000000FFFFFFFF000000000000000000000A
:104AB00000000000000000000000000000000000F6
:104AC0000000000000E000F8007E801FE007F80111
:104AD0007E001F007E00F801E007801F007E00F8C6
:104AE00000E000000000000000000000F01FFC3F9C
:104AF0003E381F381F381E001E003C007800F000B2
:104B0000E001C003C003C007C007000000000000B0
:104B1000C007C007C0070000000000000000000040
:104B2000F803FE0F1E1F0F3E7F3CFF78EF79C7731F
:104B3000C7F38FF38FF38FF39FF39FF3FF73FF7B25
:104B4000F779003C1C1FFC0FF80300000000000078
:104B500000000000000000000000E003E003F00798
:104B6000F007F007780F780F7C0E3C1E3C1E3E3C91
:104B7000FE3FFF3F1F780F780FF007F007F00000AF
:104B80000000000000000000000000000000F83FEE
:104B9000FC3F3E3C1E3C1E3C1E3C3E3C7C3CF03FF1
:104BA000F83F7E3C1F3C1F3C0F3C0F3C1F3CFE3F30
:104BB000F83F0000000000000000000000000000BE
:104BC0000000FF01FF07871F003E003C007C0078CB
:104BD0000078007800780078007C007C003E003F80
:104BE000831FFF07FF01000000000000000000001D
:104BF000000000000000F07FFC7F7E781F781F78A7
:104C00000F780F780F780F780F780F780F780F786C
:104C10001F781E787E78F87FE07F0000000000009B
:104C200000000000000000000000FF3FFF3F003ECA
:104C3000003E003E003E003E003EFE3FFE3F003E86
:104C4000003E003E003E003E003EFF3FFF3F0000B2
:104C50000000000000000000000000000000FF1F36
:104C6000FF1F001E001E001E001E001E001EFF1F54
:104C7000FF1F001E001E001E001E001E001E001E44
:104C8000001E000000000000000000000000000006
:104C90000000FE03FF0F871F003E007C007C0078B1
:104CA00000F800F87FF87FF80F780F7C0F7C0F3E3C
:104CB0008F1FFF0FFE030000000000000000000037
:104CC0000000000000001F7C1F7C1F7C1F7C1F7CDD
:104CD0001F7C1F7C1F7CFF7FFF7F1F7C1F7C1F7C36
:104CE0001F7C1F7C1F7C1F7C1F7C000000000000BD
:104CF00000000000000000000000FF3FFF3FE00355
:104D0000E003E003E003E003E003E003E003E0038B
:104D1000E003E003E003E003E003FF3FFF3F0000A8
:104D20000000000000000000000000000000FC1F68
:104D3000FC1F7C007C007C007C007C007C007C00F4
:104D40007C007C007C007C0078007800F838F03F24
:104D5000C03F000000000000000000000000000054
:104D600000001F3C1E3C3C3C783CF03CE03DE03FFA
:104D7000C03F803FC03FE03FF03DF03C783C7C3C92
:104D80003E3C1F3C0F3C0000000000000000000003
:104D9000000000000000003E003E003E003E003EDD
:104DA000003E003E003E003E003E003E003E003E13
:104DB000003E003E003EFF3FFF3F000000000000BD
:104DC000000000000000000000001FF81FFC1FFC96
:104DD0003FFE3FFE3FFE7FFF77FF77FFF7F7E7F7E6
:104DE000E7F3E7F3C7F307F007F007F007F0000079
:104DF00000000000000000000000000000000F7C28
:104E00000F7C0F7E0F7F0F7F8F7F8F7FCF7FEF7B9A
:104E1000EF79FF79FF78FF787F783F783F781F78C8
:104E20001F780000000000000000000000000000EB
:104E30000000F007FC1F3E3E1F7C0F780F780FF834
:104E40000FF80FF80FF80FF80FF80F780F781F7C96
:104E50003E3EFC1FF00700000000000000000000C4
:104E6000000000000000FC3FFF3F1F3E0F3E0F3ED2
:104E70000F3E0F3E1F3E3F3EFC3FF03F003E003ED8
:104E8000003E003E003E003E003E000000000000EC
:104E900000000000000000000000F007FC1F3E3E84
:104EA0001F7C0F780F780FF80FF80FF80FF80FF836
:104EB0000FF80F780F781F7C3E3EFC1FF8077C0030
:104EC0003F000F0003000000000000000000F03F62
:104ED000FC3F7E3C3E3C1E3C1E3C3E3C3C3CFC3C85
:104EE000F03FE03FF03DF83C7C3C3E3C1E3C1F3C2C
:104EF0000F3C000000000000000000000000000067
:104F00000000FC07FE1F0E3E003C003C003C003E43
:104F1000C01FF80FFE037F001F000F000F001F20AF
:104F20003E3CFC3FF01F00000000000000000000BD
:104F3000000000000000FFFFFFFFE003E003E003CC
:104F4000E003E003E003E003E003E003E003E00349
:104F5000E003E003E003E003E003000000000000E2
:104F6000000000000000000000000F7C0F7C0F7CA0
:104F70000F7C0F7C0F7C0F7C0F7C0F7C0F7C0F7CD9
:104F80000F7C0F7C1E3C1E3C3E3EFC1FF0070000C9
:104F9000000000000000000000000000000007F01A
:104FA00007F007F80F780F7C1E3C1E3C1E3E3C1E8F
:104FB0003C1F781F780FF80FF007F007F007E003A9
:104FC000E0030000000000000000000000000000FE
:104FD000000003E003F003F007F0E7F3E7F3E7F383
:104FE000E773F77BF77FFF7F7F7F7F7F7E7F7E3F4B
:104FF0003E3E3E3E3E3E000000000000000000003D
:1050000000000000000007F80F7C1E3E3E3E3C1FE3
:10501000F80FF007E007E003E003F007F80F7C0F5C
:105020007C1E3E3C1F780F780FF00000000000004F
:105030000000000000000000000007F807780F7C67
:105040001E3C1E3E3C1F780FF80FF007E003E00304
:10505000E003E003E003E003E003E003E00300001B
:105060000000000000000000000000000000FF7FC2
:10507000FF7F0F001F003E007C00F800F000E00101
:10508000E003C007800F000F001E003E007CFF7F82
:10509000FF7F00000000000000000000FF07800705
:1050A00080078007800780078007800780078007C8
:1050B00080078007800780078007800780078007B8
:1050C00080078007800780078007FF07FF07000031
:1050D00000780078003C003C001E001E000F000F0E
:1050E00080078007C003C003E001E001F000F0008A
:1050F000780078003C003C001E001E000F000F00EE
:1051000007000000F07FF000F000F000F000F00079
:10511000F000F000F000F000F000F000F000F0000F
:10512000F000F000F000F000F000F000F000F000FF
:10513000F000F07FF07F0000C000C001C001E0037C
:10514000E003F007F0077807780F380F3C1E3C1E8D
:105150001E3C1E3C0F380F7807780000000000004E
:10516000000000000000000000000000000000003F
:10517000000000000000000000000000000000002F
:10518000000000000000000000000000000000001F
:10519000000000000000FFFFFFFF00000000000013
:1051A000F00000000000000000000000000000000F
:1051B00000000000000000000000000000000000EF
:1051C00000000000000000000000000000000000DF
:1051D00000000000000000000000000000000000CF
:1051E000F80FFC3F7C3C3E003E003E00FE07FE1FE9
:1051F0003E3E3E7C3E783E7C7E7CFF3FCF1F0000E3
:105200000000000000000000003C003C003C003CAE
:10521000003C003CF83DFE3F3E3F1F3E0F3C0F3C34
:105220000F3C0F3C0F3C0F3C1F3C1E3C3E3FFC3FE5
:10523000F03B000000000000000000000000000043
:105240000000000000000000FE03FF0F871F003E6B
:10525000003E003C007C007C007C003C003E003EA8
:10526000871FFF0FFE030000000000000000000089
:105270001F001F001F001F001F001F00FF07FF1F50
:105280003F3E1F3C1F7C1F7C1F7C1F781F781F7CAC
:105290001F7C3F3C7F3EFF1FDF0F0000000000002F
:1052A00000000000000000000000000000000000FE
:1052B000F803FC0F3E1F1E3E1F3C1F7CFF7FFF7F3D
:1052C000007C007C003C003E071FFF0FFE03000037
:1052D0000000000000000000FF01E103C003C00760
:1052E000C007C007FF7FFF7FC007C007C007C00718
:1052F000C007C007C007C007C007C007C007C00776
:10530000C0070000000000000000000000000000D6
:105310000000000000000000EF07FF1F7F3E1F3C61
:105320001F7C1F7C1F781F781F781F7C1F7C3F3CD1
:105330007F3EFF1FDF0F1E001E001E007C38F83F5F
:10534000003C003C003C003C003C003CFC3DFE3F7F
:105350009E3F1F3F1F3E1F3C1F3C1F3C1F3C1F3CEE
:105360001F3C1F3C1F3C1F3C1F3C00000000000076
:1053700000000000F001F00100000000000000004B
:10538000E07FE07FE001E001E001E001E001E00119
:10539000E001E001E001E001E001E001E0010000E6
:1053A0000000000000000000F800F800000000000D
:1053B00000000000F83FF83FF800F800F800F8009F
:1053C000F800F800F800F800F800F800F800F8001D
:1053D000F800F800F800F000F071E07F003C003CBD
:1053E000003C003C003C003C1F3C3E3C7C3CF83C0C
:1053F000F03DE03DC03FC03FE03FF03DF83C7C3C2D
:105400003E3C1F3C1F3C000000000000000000006C
:10541000F07FF001F001F001F001F001F001F00186
:10542000F001F001F001F001F001F001F001F001F4
:10543000F001F001F001F001F001000000000000B7
:10544000000000000000000000000000000000005C
:105450009EF7FFFFFFFFFFFFE7FBE7F9C7F1C7F18B
:10546000C7F1C7F1C7F1C7F1C7F1C7F1C7F1000034
:10547000000000000000000000000000000000002C
:1054800000000000FC3DFE3F9E3F1F3F1F3E1F3CB3
:105490001F3C1F3C1F3C1F3C1F3C1F3C1F3C1F3C34
:1054A0001F3C0000000000000000000000000000A1
:1054B0000000000000000000F007FC1F3E3E1F3C03
:1054C0001F7C0F780F780F780F780F781F7C1F3CA8
:1054D0003E3EFC1FF007000000000000000000003E
:1054E000000000000000000000000000F83DFE3F4A
:1054F0003E3F1F3E0F3C0F3C0F3C0F3C0F3C0F3C10
:105500001F3C1E3E3E3FFC3FF83F003C003C003C41
:10551000003C003C00000000000000000000000013
:10552000EE07FE1F7E3E1E3C1E7C1E781E781E78F7
:105530001E781E781E7C3E7C7E3EFE1FDE0F1E0007
:105540001E001E001E001E000000000000000000E3
:10555000000000007F1FFF1FE71FC71F871F001FDE
:10556000001F001F001F001F001F001F001F001F43
:10557000001F00000000000000000000000000000C
:105580000000000000000000FC07FE1F0E1E003E91
:10559000003E003FE01FFC07FE003E001E001E0014
:1055A0003E3CFC3FF01F0000000000000000000037
:1055B000000000000000800780078007FF7FFF7F5A
:1055C00080078007800780078007800780078007A3
:1055D00080078007C007FF03FF01000000000000F4
:1055E00000000000000000000000000000000000BB
:1055F0001E3C1E3C1E3C1E3C1E3C1E3C1E3C1E3CDB
:105600001E3C1E3C3E3C7E3CFE3EFE1FDE0F00006C
:10561000000000000000000000000000000000008A
:105620000000000007F00F780F781E3C1E3C1E3E65
:105630003C1E3C1E780F780FF00FF007F007E003D8
:10564000E003000000000000000000000000000077
:10565000000000000000000003F0E3F1E3F3E7F3D3
:10566000F7F3F7F3F77F777F7F7F7F7F7F7F3E3E84
:105670003E3E3E3E3E3E00000000000000000000B6
:105680000000000000000000000000000F7C1E3E33
:105690003C3E3C1FF80FF007F007E003F007F80767
:1056A000F80F7C1E3E3E1F3C1F78000000000000EB
:1056B00000000000000000000000000000000000EA
:1056C00007F80F780F7C1E3C1E3C3C1E3C1E3C1F06
:1056D000780FF80FF007F007E003E003C003C00302
:1056E000C0038007800F007F000000000000000062
:1056F00000000000FF3FFF3F1F003E007C00F8005D
:10570000F001E003C007800F001F001E003CFF7F78
:10571000FF7F00000000000000000000FE01E00329
:10572000C003C003C003C003E001E001E001C00109
:10573000C003803F803FC003C001E001E001E00101
:10574000C003C003C003C003E003FE017E000000ED
:10575000C001C001C001C001C001C001C001C00141
:10576000C001C001C001C001C001C001C001C00131
:10577000C001C001C001C001C001C001C001C00121
:10578000C0010000C03FE003E001E001E001E001F2
:10579000C001C003C003C001E001FE00FE00E00143
:1057A000C001C003C003C001E001E001E001E0016D
:1057B000E003C03F003F00000000000000000000C8
:1057C0000000000000000000000000000000073F93
:1057D000C77FE773FFF17EF00000000000000000CB
:1057E00000000000000000000000000000000000B9
:1057F00000000000000000000000000000000000A9
:105800000000000000000000000000000000000098
:105810000000000C000C000C000C000C000C000C34
:10582000000C000C000C000C0000000C000C000030
:10583000000000000000001B001B001B001B001BE1
:105840000000000000000000000000000000000058
:10585000000000000000000000008019801980197D
:105860008019C07FC07F80190033C07FC07F0033A4
:105870000033003300330000000000000000001E71
:10588000003F807580650074003C001E00078005A5
:10589000806580658075003F001E000400040000E4
:1058A0000000007000D840D8C0D880D9007300062E
:1058B000000C801BC036C066C046C00680030000D6
:1058C000000000000000001E003F003300330033E2
:1058D000001E000CC03CC066806380618063C03ED7
:1058E000801C0000000000000000000C000C000CF8
:1058F000000C000C00000000000000000000000090
:105900000000000000000000000000008000000116
:105910000003000600060004000C000C000C000C44
:10592000000C000C000400060006000300018000CB
:10593000002000100018000C000C000400060006F7
:1059400000060006000600060004000C000C00180B
:10595000001000200000000C002D003F001E00334E
:105960000000000000000000000000000000000037
:105970000000000000000000000000000000000C1B
:10598000000C000C000CC0FFC0FF000C000C000C51
:10599000000C0000000000000000000000000000FB
:1059A00000000000000000000000000000000000F7
:1059B000000000000000000C000C000400040008BF
:1059C00000000000000000000000000000000000D7
:1059D0000000001E001E000000000000000000008B
:1059E00000000000000000000000000000000000B7
:1059F0000000000000000000000000000000000C9B
:105A0000000C000000000000000000030003000381
:105A10000006000600060006000C000C000C000C3E
:105A20000018001800180000000000000000001E10
:105A3000003F0033806180618061806D806D806196
:105A4000806180610033003F001E00000000000004
:105A500000000006000E001E0036002600060006AC
:105A6000000600060006000600060006000600000C
:105A7000000000000000001E003F80738061806114
:105A8000800100030006000C001800300060807FD9
:105A9000807F0000000000000000001C003E00634A
:105AA00000630003000E000E00038001800180618E
:105AB0008073003F001E0000000000000000000690
:105AC000000E000E001E001E001600360036006696
:105AD000807F807F000600060006000000000000B6
