:020000040800F2
:1000000000000220BD140008650800086708000809
:10001000690800086B0800086D080008000000006F
:100020000000000000000000000000006F08000851
:100030007108000800000000730800087508000837
:100040000D1500080D1500080D1500080D15000808
:100050000D1500080D1500080D1500080D150008F8
:100060000D1500080D1500080D1500080D150008E8
:100070000D1500080D1500080D1500080D150008D8
:100080000D1500080D1500080D1500080D150008C8
:100090000D1500080D1500080D1500080D150008B8
:1000A0000D1500080D1500080D1500080D150008A8
:1000B0000D1500080D1500080D1500080D15000898
:1000C0000D1500080D1500080D1500080D15000888
:1000D0000D1500080D1500080D1500080D15000878
:1000E0000D1500080D1500080D1500080D15000868
:1000F0000D1500080D1500080D1500080D15000858
:100100000D1500080D1500080D1500080D15000847
:100110000D1500080D1500080D1500080D15000837
:100120000D1500080D1500080D1500080D15000827
:100130000D1500080D1500080D1500080D15000817
:100140000D1500080D1500080D1500080D15000807
:100150000D1500080D1500080D1500080D150008F7
:100160000D1500080D1500080D1500080D150008E7
:100170000D1500080D1500080D1500080000000001
:080180000D1500080D15000823
:1001880010B5054C237833B9044B13B10448AFF3C9
:1001980000800123237010BD0C0000200000000027
:1001A8006815000808B5034B1BB103490348AFF3B2
:1001B800008008BD0000000010000020681500083D
:1001C80053B94AB9002908BF00281CBF4FF0FF31B6
:1001D8004FF0FF3000F072B9ADF1080C6DE904CEB4
:1001E80000F006F8DDF804E0DDE9022304B070470A
:1001F8002DE9F047089E04468846002B4BD18A42D9
:10020800154667D9B2FA82F24AB1C2F1200701FA5B
:1002180002F320FA07F7954047EA030894404FEAAB
:10022800154E230CB8FBFEF71FFA85FC0EFB17884A
:1002380043EA084307FB0CF1994209D9EB1807F187
:10024800FF3080F01B81994240F21881023F2B4415
:100258005B1AA4B2B3FBFEF00EFB103344EA03446E
:1002680000FB0CFCA44509D92C1900F1FF3380F0E0
:100278000781A44540F2048102382C4440EA074033
:10028800A4EB0C0400271EB1D4400023C6E90043A8
:100298003946BDE8F0878B4209D9002E00F0EB8083
:1002A8000027C6E9000138463946BDE8F087B3FAA9
:1002B80083F7002F47D18B4202D3824200F2FA80A3
:1002C800841A61EB030301209846002EE0D0C6E9AA
:1002D8000048DDE702B9FFDEB2FA82F2002A40F0F8
:1002E8008F80491B4FEA154E1FFA85F80127B1FB8D
:1002F800FEFC230C0EFB1C1143EA014308FB0CF126
:10030800994207D9EB180CF1FF3002D2994200F25A
:10031800CD808446591AA3B2B1FBFEF00EFB10142F
:1003280043EA044408FB00F8A04507D92C1900F15A
:10033800FF3302D2A04500F2B6801846A4EB0804A9
:1003480040EA0C409FE7C7F1200CBB4022FA0CFEA4
:100358004EEA030E01FA07F420FA0CF521FA0CF321
:100368004FEA1E482543B3FBF8F92C0C08FB193358
:100378001FFA8EFA44EA034309FB0AF49C4202FA84
:1003880007F200FA07F10BD91EEB030309F1FF305E
:1003980080F087809C4240F28480A9F1020973446E
:1003A8001B1BADB2B3FBF8F008FB103345EA03445E
:1003B80000FB0AFAA24508D91EEB040400F1FF333A
:1003C8006BD2A24569D90238744440EA0940A0FBBF
:1003D8000289A4EB0A044C45C2464B4654D351D07B
:1003E800002E69D0B1EB0A0564EB030404FA0CFC97
:1003F800FD40FC404CEA0505C6E90054002747E7E4
:10040800C2F1200320FA03F7954001FA02F021FA1D
:1004180003F34FEA154E3843010CB3FBFEF71FFAFE
:1004280085F80EFB173341EA034107FB08F38B42BB
:1004380004FA02F407D9691807F1FF3C2FD28B425E
:100448002DD9023F2944CB1A81B2B3FBFEF00EFB33
:10045800103341EA034100FB08F38B4207D96918BE
:1004680000F1FF3C17D28B4215D902382944C91A2A
:1004780040EA07473BE73746304609E70746E7E6DD
:100488001846FBE64145ABD2B8EB020A69EB0E020F
:1004980001381346A4E76046E9E7184695E767463A
:1004A800D1E781467CE702382C4447E7ACF1020CDF
:1004B8002B442FE7384608E73746E9E6704700BF80
:1004C80070B588B0002403940494059406940794A6
:1004D8000194174B1A6B42F010021A631A6B02F060
:1004E80010020192019A02941A6B42F001021A63F7
:1004F8001B6B03F001030293029B0E4D2246402121
:10050800284600F05CFB0423039304940126059617
:1005180003A9094800F068FA402303930496059458
:10052800069403A9284600F05FFA08B070BD00BF22
:10053800003802400000024000100240034B1A68D5
:1005480000235362536A8342FCD37047440000205F
:1005580000B587B000230393049305930191012309
:10056800029301A900F040FA07B05DF804FB00B55A
:1005780087B0002302930493059301910123039309
:1005880001A900F031FA07B05DF804FB10B50D4C75
:1005980004212046FFF7DCFF00220421204600F05A
:1005A8000EFB44F25060FFF7C9FF012204212046E8
:1005B80000F005FB1420FFF7C1FF04212046FFF7D8
:1005C800D6FF10BD0010024010B52820FFF7B6FF77
:1005D80004210C4800F0ECFA40B100240421094839
:1005E80000F0E6FA0028F9D1204610BD5020FFF7A8
:1005F800A5FF0421034800F0DBFA08B10124EDE768
:10060800FF24EBE70010024038B500240DE0C4F1E8
:100618000703012098402843C5B20421104800F080
:10062800C7FA0028F9D10134E4B2072C16D80421FE
:100638000B4800F0BDFA0028F9D02820FFF77EFF0C
:100648000421074800F0B4FA0028E0D1C4F10703F8
:100658000120984025EA0000C5B2DEE7284638BDEB
:100668000010024072B6FEE700B587B0002302937F
:10067800039304930593009301931448144A02606A
:100688000F22426083604FF6FE72C26003614361CD
:10069800836100F039FE98B906A94FF4805341F8F8
:1006A800103D0A4800F055FE60B9002300930193FD
:1006B8006946064800F0BAFE30B907B05DF804FB99
:1006C800FFF7D0FFFFF7CEFFFFF7CCFF4400002075
:1006D8000000014000B595B03022002108A800F0C4
:1006E80037FF00230393049305930693079301931D
:1006F800184A116C41F080511164126C02F080525A
:100708000192019A0293144A116841F480411160E0
:10071800126802F480420292029A0222089201228E
:100728000B9210220C920E9308A800F04FFA68B9A9
:100738000F2303930021049105910691079103A8C3
:1007480000F08EFC20B915B05DF804FBFFF78AFFB6
:10075800FFF788FF003802400070004008B500F03D
:10076800BBF8FFF7B7FFFFF7ABFEFFF77DFF1848B1
:1007780000F055FDFFF70AFFFFF726FF154C207024
:10078800FFF742FF144D2870FFF73EFF134B187018
:10079800FFF73AFF124E3070FFF736FF114B187013
:1007A800FFF732FF104B18803278104B1A802B78E5
:1007B8000F490B8007EE902AF8EE677AC4ED017AAC
:1007C80007EE903AF8EE677AC4ED027AD2E700BFF6
:1007D80044000020280000203400002040000020B1
:1007E8003A00002086000020840000203800002005
:1007F8003600002082B0002100910B4B5A6C42F465
:1008080080425A645A6C02F480420092009A019124
:100818001A6C42F080521A641B6C03F080530193E7
:10082800019B02B0704700BF003802400268094BC4
:100838009A4200D0704782B000230193064B5A6C4D
:1008480042F001025A645B6C03F001030193019BBF
:1008580002B070470000014000380240FEE7FEE7A2
:10086800FEE7FEE7FEE770477047704708B500F0FF
:100878004DF808BD054BD3F8882042F47002C3F840
:1008880088204FF000629A60704700BF00ED00E0DA
:1008980010B504460E4B18784FF47A73B3FBF0F397
:1008A8000C4A1068B0FBF3F000F088F868B90F2C18
:1008B80001D901200AE0002221464FF0FF3000F064
:1008C80049F8034B5C60002000E0012010BD00BF28
:1008D800040000200000002008B50B4B1A6842F401
:1008E80000721A601A6842F480621A601A6842F448
:1008F80080721A60032000F01BF80020FFF7C8FF81
:10090800FFF778FF002008BD003C0240034A116849
:10091800034B1B780B441360704700BF880000200E
:1009280004000020014B1868704700BF88000020B1
:10093800074AD36823F4E0631B041B0C000200F48D
:10094800E060184340F0BF6040F40030D06070476A
:1009580000ED00E030B4174BDB68C3F30223C3F1AA
:100968000704042C28BF04241D1D062D18D9033B99
:100978004FF0FF3505FA04F421EA0401994005FA1D
:1009880003F322EA0303194300280BDB0901C9B268
:1009980000F1604000F5614080F8001330BC7047FA
:1009A8000023E5E700F00F000901C9B2024B195412
:1009B800F4E700BF00ED00E014ED00E00138B0F10D
:1009C800807F0AD2064B5860064AF02182F823102D
:1009D8000020986007221A6070470120704700BF06
:1009E80010E000E000ED00E000230F2B00F2D780BC
:1009F800F0B583B039E0072200E00022AA403A436C
:100A08000234674D45F82420664A1468F24302EA26
:100A180004054F6817F4803F01D046EA0405614C8D
:100A28002560646802EA04054F6817F4003F01D0A6
:100A380046EA04055B4C6560A46802EA04054F6851
:100A480017F4801F01D046EA0405564CA560E468F7
:100A580022404D6815F4001F01D046EA0402514CAB
:100A6800E26001330F2B00F2988001229A400C6853
:100A780004EA0206B242F4D14C68651E012D03D97E
:100A8800112C01D0122C12D185685F000324BC40C0
:100A980025EA0405CC68BC402C438460456825EAF7
:100AA80002054C68C4F300129A402A434260C468A5
:100AB8005F000322BA40D24314408D68BD402543ED
:100AC800C5604C68022C01D0122C13D1DD08083502
:100AD80050F825E003F007044FEA840C0F2404FAC9
:100AE8000CF42EEA040E0C6904FA0CF444EA0E0421
:100AF80040F82540046822404C6804F00304BC40D8
:100B0800224302604A6812F0805FAAD00022019254
:100B1800254A546C44F480445464526C02F4804274
:100B28000192019A9C08A51C1D4A52F8257003F0F1
:100B3800030295000F22AA4027EA02071B4A9042A7
:100B48003FF45BAF02F5806290421AD002F58062F2
:100B5800904218D002F58062904216D002F5806269
:100B6800904214D002F58062904212D002F5806261
:100B7800904210D002F5806290423FF43CAF0822C8
:100B88003CE701223AE7022238E7032236E704224B
:100B980034E7052232E7062230E703B0F0BD70479C
:100BA80000380140003C014000380240000002408B
:100BB8000369194201D1002070470120704712B91A
:100BC800090481617047816170470000002800F0C6
:100BD800E48170B582B00446036813F0010F3BD07E
:100BE800A74B9B6803F00C03042B2CD0A44B9B68E9
:100BF80003F00C03082B21D06368B3F5803F4FD076
:100C0800B3F5A02F52D09E4B1A6822F480321A6096
:100C18001A6822F480221A606368002B50D0FFF70C
:100C280081FE0546964B1B6813F4003F14D1FFF76D
:100C380079FE401B6428F5D90320B3E1904B5B682B
:100C480013F4800FD8D08E4B1B6813F4003F03D0E9
:100C58006368002B00F0A381236813F0020F55D0BE
:100C6800874B9B6813F00C0F3ED0854B9B6803F0B5
:100C78000C03082B33D0E368002B68D0814B01228A
:100C88001A60FFF74FFE05467D4B1B6813F0020FF5
:100C980054D1FFF747FE401B0228F5D9032081E114
:100CA800774A136843F480331360B5E7744B1A68C6
:100CB80042F480221A601A6842F480321A60ABE764
:100CC800FFF730FE05466E4B1B6813F4003FC3D098
:100CD800FFF728FE401B6428F5D9032062E1684B22
:100CE8005B6813F4800FC6D1654B1B6813F0020FC5
:100CF80004D0E368012B01D0012053E1604A136856
:100D080023F0F803216943EAC1031360236813F051
:100D1800080F40D0636963B35B4B01221A60FFF789
:100D280001FE0546564B5B6F13F0020F33D1FFF7F8
:100D3800F9FD401B0228F5D9032033E1504A136816
:100D480023F0F803216943EAC1031360DEE74D4B42
:100D580000221A60FFF7E6FD0546494B1B6813F0B1
:100D6800020FD3D0FFF7DEFD401B0228F5D9032080
:100D780018E1454B00221A60FFF7D4FD0546404BA9
:100D88005B6F13F0020F06D0FFF7CCFD401B022863
:100D9800F5D9032006E1236813F0040F79D0384B06
:100DA8001B6C13F0805F33D100230193344B1A6C12
:100DB80042F080521A641B6C03F080530193019B2C
:100DC8000125324B1B6813F4807F23D0A368012BC5
:100DD80034D0052B38D02A4B1A6F22F001021A673B
:100DE8001A6F22F004021A67A368002B36D0FFF7A7
:100DF80099FD0646224B1B6F13F0020F48D1FFF7EF
:100E080091FD801B41F288339842F3D90320C9E051
:100E18000025D6E71D4A136843F480731360FFF773
:100E280081FD0646194B1B6813F4807FCED1FFF76E
:100E380079FD801B0228F5D90320B3E0104A136F0F
:100E480043F001031367CFE70D4B1A6F42F004021A
:100E58001A671A6F42F001021A67C5E7FFF762FDC9
:100E68000646074B1B6F13F0020F11D0FFF75AFD10
:100E7800801B41F288339842F3D9032092E000BFE7
:100E88000038024000004742800E47420070004090
:100E9800EDB9A369002B00F08480454A926802F0FE
:100EA8000C02082A51D0022B17D0424B00221A609C
:100EB800FFF738FD04463E4B1B6813F0007F42D015
:100EC800FFF730FD001B0228F5D903206AE0384AF5
:100ED800136C23F080531364DBE7364B00221A604F
:100EE800FFF720FD0546324B1B6813F0007F06D044
:100EF800FFF718FD401B0228F5D9032052E0E369EB
:100F0800226A1343626A43EA8213A26A5208013AC8
:100F180043EA0243E26A43EA0263254A5360254BE7
:100F280001221A60FFF7FEFC0446214B1B6813F0F0
:100F3800007F06D1FFF7F6FC001B0228F5D9032035
:100F480030E000202EE000202CE0012B2CD0184BA4
:100F58005B6803F48001E269914201D0012021E03D
:100F680003F03F02216A8A4201D001201AE0616A37
:100F780047F6C0721A408A4201D0012012E003F4F9
:100F88004032A16A8A4201D001200BE003F070636D
:100F9800E26A93420AD0012004E001207047012050
:100FA80000E0002002B070BD0120FBE70020F9E757
:100FB8000038024060004742264B9B6803F00C0350
:100FC800042B44D0082B01D0234870472DE9F04B5F
:100FD800204B5A6802F03F025B6813F4800F13D06D
:100FE8001C4B5968C1F3881100231C48A1FB000160
:100FF800FFF7E6F8174B5B68C3F3014301335B0067
:10100800B0FBF3F0BDE8F08B124B5B68C3F38813B9
:101018001E4600275C010025E41A65EB0705A901B7
:1010280041EA9461A001001B61EB0501CB0043EA92
:101038005073C400A01943EB07018B0243EA905395
:101048008402204619460023FFF7BAF8D2E703487E
:10105800704700BF003802400024F40040787D014A
:10106800002800F09E8070B50446504B1B6803F0C2
:101078000F038B4209D2CBB24C4A1370136803F0AA
:101088000F038B4201D0012070BD236813F0020FBB
:1010980017D013F0040F04D0454A936843F4E05383
:1010A8009360236813F0080F04D0414A936843F40F
:1010B800604393603E4A936823F0F003A0680343BB
:1010C80093600D46236813F0010F32D06368012B3B
:1010D80021D09A1E012A25D9354A126812F0020F2A
:1010E80061D033498A6822F0030213438B60FFF70B
:1010F80019FC06462E4B9B6803F00C036268B3EBA1
:10110800820F16D0FFF70EFC801B41F288339842FD
:10111800F0D90320B8E7264A126812F4003FE0D15C
:101128000120B1E7224A126812F0007FD9D10120CC
:10113800AAE71E4B1B6803F00F03AB4209D9EAB2BA
:101148001A4B1A701B6803F00F03AB4201D0012041
:101158009AE7236813F0040F06D0154A936823F41E
:10116800E053E1680B439360236813F0080F07D03E
:101178000F4A936823F46043216943EAC1039360EB
:10118800FFF71AFF0A4B9B68C3F30313094AD35CA2
:10119800D840094B1860094B1868FFF779FB002005
:1011A80072E70120704701206EE700BF003C024053
:1011B80000380240801500080000002008000020C8
:1011C80010B4036A046A24F001040462846924F0F8
:1011D800F00444EA021223F00A030B43826103621B
:1011E8005DF8044B704710B4036A23F010030362E0
:1011F8008469036A24F4704444EA023223F0A003A9
:1012080043EA0113826103625DF8044B7047836807
:1012180023F07003194341F00701816070470268A9
:10122800D36843F00103D3600268936803F00703AF
:10123800062B03D0136843F00103136000207047A6
:101248000368304A904212D0B0F1804F0FD0A2F517
:101258007C4290420BD002F58062904207D002F5A2
:101268008062904203D002F57842904203D123F085
:1012780070034A681343234A90422AD0B0F1804F42
:1012880027D0A2F57C42904223D002F5806290429A
:101298001FD002F5806290421BD002F5784290423E
:1012A80017D002F57052904213D002F58062904236
:1012B8000FD002F5806290420BD0A2F5983290428E
:1012C80007D002F58062904203D002F58062904216
:1012D80003D123F44073CA68134323F080034A6997
:1012E800134303608B68C3620B688362054B9842A3
:1012F80003D003F58063984201D10B69036301238E
:101308004361704700000140A8B110B5044690F849
:101318003D305BB1022384F83D30211D2068FFF782
:101328008FFF012384F83D30002010BD80F83C3049
:10133800FFF77CFAEEE70120704710B4846824F4C4
:101348007F4442EA03230B43234383605DF8044B45
:10135800704790F83C30012B66D010B50446012345
:1013680080F83C30022380F83D300268936823F40B
:101378007F4323F0770393600B68402B4AD013D93F
:10138800602B3DD01ED9702B28D0B3F5005F30D12B
:10139800CB684A6889680068FFF7CFFF22689368BE
:1013A80043F48043936024E0102B06D004D9202B0B
:1013B80003D0302B01D01CE0DBB919462068FFF7B9
:1013C80026FF16E0502B14D1CA6849680068FFF759
:1013D800F7FE50212068FFF71AFF0AE0CB684A6839
:1013E80089680068FFF7A9FF2268936843F07703CC
:1013F8009360012384F83D30002084F83C0010BD40
:10140800CA6849680068FFF7EEFE60212068FFF7A8
:10141800FEFEEEE7CA6849680068FFF7D1FE402182
:101428002068FFF7F4FEE4E70220704790F83C30AC
:10143800012B3BD030B4012380F83C30022380F8E4
:101448003D3003685C689D6824F070040A68224394
:101458005A600368164A93421AD0B3F1804F17D0E6
:10146800A2F57C42934213D002F5806293420FD0DA
:1014780002F5806293420BD002F57842934207D07E
:1014880002F57052934203D0A2F59432934204D1EC
:1014980025F080054A6815439D60012380F83D309A
:1014A800002380F83C30184630BC70470220704753
:1014B80000000140DFF834D0002103E00C4B5B58FA
:1014C800435004310B480C4B42189A42F6D30B4A4E
:1014D80002E0002342F8043B094B9A42F9D3FFF794
:1014E800C9F900F011F8FFF739F970470000022038
:1014F800A8150008000000200C0000200C000020A7
:101508008C000020FEE7000070B50D4E0D4CA41BAA
:10151800A4100025A54209D10B4E0C4C00F020F870
:10152800A41BA4100025A54205D170BD56F825308E
:1015380098470135EEE756F8253098470135F2E728
:10154800A0150008A0150008A0150008A41500089B
:1015580002440346934200D1704703F8011BF9E7A0
:10156800F8B500BFF8BC08BC9E467047F8B500BF88
:08157800F8BC08BC9E46704758
:101580000000000000000000010203040607080933
:08159000000000000102030449
:0815980060ECFF7F0100000080
:0415A000AD01000891
:0415A40089010008B1
:0C15A8000024F40001000000100000000E
:04000005080014BD1E
:00000001FF
